:02000002B0004C
:1040000000400B0040910B00000006000C00050270
:0840100004010410000000008F
:04401800788C0B0095
:1040200009480A49884208B505D0094A824202D0A7
:10403000121A04F051FD0748074A0021121A04F031
:1040400059FD014808BD00BF90E50320A0900B007A
:1040500008E6032008E60320EDE7032070B5074ECD
:10406000074C02F0DDFBA41BA4080025AC4200D1E4
:1040700070BD56F8043B98470135F7E740900B00B8
:1040800064900B0000F030B908B500F097F9BDE876
:10409000084002F07DBB01F049BB01F047BB01F0D5
:1040A0004DBB0078B0FA80F04009704701230370DF
:1040B0007047000010B5034B0360044600F0C8FFD2
:1040C000204610BD7C8D0B0010B50446FFF7F2FFB3
:1040D00020464FF49871FFF7E2FF204610BD000024
:1040E00008B5114800F060FD104B0F48BDEEC00A46
:1040F00083ED000A00F088FD0D4B0B48BDEEC00AB1
:1041000083ED000A00F0CAFD0A4B0748BDEEC00A65
:1041100083ED000A9FED080A00F092FE074BBDEE0A
:10412000C00A83ED000A08BD3CE60320B4E6032084
:104130008CE60320A0E6032000507D441CE603200B
:1041400008B5104800F03EFF0F4B1B68834205D1B5
:104150000E490F48BDE8084002F0B5B90D4B1B6889
:10416000834201D10C49F4E70C4B1B68834201D117
:104170000B49EEE70B4B1B6883420CBF0A490B4906
:10418000E7E700BF20E60320DC8D0B008C8C0B00E2
:104190000CE60320E48D0B009C8C0B00E08D0B00E3
:1041A000AA8C0B00E88D0B00B78C0B00C18C0B00A8
:1041B000F8B5314B314A1968002945D112681A60A7
:1041C00018682F4C03F040FE21A3D3E9002303F02D
:1041D000DFFF9FED211B41EC100BC4E9000102F051
:1041E0006BFC1FA3D3E9002351EC100B03F0A6FED8
:1041F000D4E900670D46044632463B463046394610
:1042000003F09CFE18A3D3E9002303F097FE0246B7
:104210000B462046294603F0D9FC1A4B04460D46AE
:1042200000223046394603F089FE02460B462046FE
:10423000294603F0CDFC0EA3D3E9002303F0C8FC0C
:10424000114BC3E90001F8BD1160B9E7AFF300807D
:1042500000000000804F12410000000000000840F4
:104260009A9999999999F13F6666666666660E40D5
:10427000D7A3703D0AD7E33F9CE6032094E60320D2
:10428000A8E603200040804080E6032008B5034BE9
:10429000188802F072FB024B186008BD90E50320FD
:1042A00098E6032008B5034B188802F066FB024B22
:1042B000186008BD94E50320B0E6032038B5046813
:1042C00005467CB16368013B63605BB923682046A7
:1042D0009B689847A368013BA3601BB923682046ED
:1042E000DB689847284638BD1FB5154B15491B7824
:1042F0008DF8003000223C2302A801F0C5FB03A882
:10430000FFF7DCFF104800F02CFE02F0BBF94FF481
:10431000165102F0ABF90021112002F0F1FA00F081
:10432000F1FF0A4B18600A4B0021188802F0E8FAE6
:10433000084B1888002105B05DF804EB02F0E0BAE4
:1043400008E60320D68C0B003CE6032090E6032011
:1043500090E5032094E5032037B504461546019106
:1043600000F082FF01990122204600F0EBFE20467A
:104370003A2100F09BFE04492A46204603B0BDE8DE
:10438000304000F0D2BE00BFF08C0B001FB50446D9
:104390008DED000B039100F067FF03990122204689
:1043A00000F0D0FE20463A2100F080FE9DED000B8B
:1043B000204604B0BDE8104000F07ABFF0B5D3B09D
:1043C000FFF78EFEFFF7BCFEFFF760FFFFF76AFF07
:1043D0000021112002F0E8FA564D574B574C186057
:1043E0002B681844286000F08DFF2368C01A47F23C
:1043F0003053984206D9FFF7DBFE00232B6000F014
:1044000081FF20604E4F02F03DF94E4901F0C8FE99
:1044100002F038F93C68002C064680F288802D2195
:1044200001F0C2FE61420A22304601F0CCFE304665
:1044300001F0BDFE12A94FF4807206A800F024FE20
:10444000414B06937D227B2106A800F018FF3A68B5
:104450003E4906A8FFF780FF3D4B3E491A6806A873
:10446000FFF77AFF3C4B3D491A6806A8FFF774FF37
:104470003B4B3C491A6806A8FFF76EFF3A4902A871
:1044800002F016F806A800F0EFFE012206A8374950
:1044900000F058FE06A83A2100F008FE0299012219
:1044A00006A800F04FFE02A801F094FF06A82C68B1
:1044B00000F0DAFE012206A82D4900F043FE06A80E
:1044C0003A2100F0F3FD224606A82A4900F02DFE0D
:1044D000294B2A4993ED000B06A8FFF757FF284BFD
:1044E000284993ED000B06A8FFF750FF264B2749FC
:1044F0001A6806A8FFF730FF254B26491A6806A858
:10450000FFF72AFF06A800F0DFFD234B079A1B7870
:1045100022498DF8003002A83C2301F0B5FA03A827
:10452000FFF7CCFE06A8FFF7C5FD53B0F0BD21464E
:1045300079E700BF9CE6032088E6032090E603208D
:10454000B4E60320F38C0B007C8D0B00018D0B0077
:104550008CE60320068D0B00A0E603200F8D0B00D8
:104560001CE60320188D0B000CE60320218D0B00A8
:10457000298D0B00318D0B00A8E60320358D0B0033
:1045800080E60320408D0B0098E603204A8D0B0047
:10459000B0E60320508D0B0009E60320568D0B007A
:1045A00008B5094B094800221A70094B01221A70FC
:1045B00000F056F80221074800F0E6FCBDE808408C
:1045C0000549064801F051BF08E603203CE60320F8
:1045D00009E6032020E60320698D0B000CE603208A
:1045E000704710B510210446FFF759FD204610BD55
:1045F0000EB403B503AB002153F8042B019301F073
:1046000000FE02B05DF804EB03B0704773B50446DA
:1046100008462279A36832B1A3B90B4902B0BDE8BC
:10462000704001F0BDBD094A267B094D0949647BF4
:10463000012E18BF2946CDE900140749FFF7D8FF1E
:1046400002B070BD054AEFE7958D0B00008D0B00A1
:10465000918D0B008D8D0B00AB8D0B00848D0B00AD
:104660004FF0FF330361704713B50B4C2178BFF354
:104670005B8F11F001010BD120460191FFF711FD75
:10468000019928B1054801F0F9FD2046FFF70EFD1C
:10469000024802B010BD00BFB8E60320BCE603200C
:1046A00008B5FFF7E1FFBDE8084001F005BE07B51A
:1046B0000190FFF7D9FF019903B05DF804EB01F019
:1046C00015BE2DE9F04190F91330013305460F4630
:1046D00006D1FFF7C9FF3946BDE8F04101F074BECD
:1046E000002407264FF0010895F91300002180B23D
:1046F00002F017F995F9110008FA06F1394080B275
:1047000002F00FF995F91300012180B202F009F9C6
:1047100095F91200640080B2E4B202F01BF908B10E
:1047200044F00104013EDFD22046BDE8F0810000E4
:104730007FB590F91030013304460E46154613D16B
:104740000179006801F0C6FB2068036831469B6868
:1047500098472068036829469B689847206804B0FA
:10476000BDE8704001F0BEBB90F9133001330CD1AD
:10477000164B009300238DF80430154B02936846C6
:104780000123ADF80C30FFF792FF94F910000021DF
:1047900080B202F0C6F806F07F012046FFF791FFD5
:1047A00029462046FFF78DFF94F91000012180B2C1
:1047B00002F0B7F894F91330013304D104B0BDE826
:1047C0007040FFF76DBF04B070BD00BFD08D0B000F
:1047D00020A10700F8B5DB0002F0070203F0380360
:1047E000134343EA81139DF8186080F83C3090F839
:1047F00040309DF81C509DF8207066F3471380F8F8
:104800004030ED0090F8383007F0070705F0380524
:1048100023F03F033D4304461D4380F8385006F023
:104820000702F221FFF784FF94F83820C2F3C20395
:1048300002F007019B0043EA411343EAD2122046EB
:10484000F521FFF775FF94F83C20C2F3C20302F094
:1048500007019B0043EA411343EA92122046F421E8
:10486000BDE8F840FFF764BF30B590F91030013370
:1048700085B004460D4618D10179006801F02AFB85
:104880002068036829469B689847206801F02AFB46
:1048900021792068012201F01AFB206803685B6916
:1048A0009847C5B2284605B030BD90F913300133A2
:1048B0000CD1154B009300238DF80430134B029359
:1048C00068460123ADF80C30FFF7F1FE94F91000B3
:1048D000002180B202F025F845F080012046FFF764
:1048E000F0FE00212046FFF7ECFE054694F910008B
:1048F000012180B202F015F894F913300133D1D1BF
:10490000FFF7CEFECEE700BFD08D0B0020A1070041
:1049100008B5F321FFF7A8FF00F0010008BD000073
:1049200030B590F91030013385B004460D461FD1E3
:104930000179006801F0CEFA2068036829469B6877
:104940009847206801F0CEFA21792068022201F010
:10495000BEFA206803685B699847054620680368CB
:104960005B69984740EA052085B2284605B030BD0E
:1049700090F9133001330CD1184B009300238DF8BC
:104980000430174B029368460123ADF80C30FFF753
:104990008EFE94F91000002180B201F0C2FF45F0B4
:1049A00080012046FFF78DFE00212046FFF789FE9B
:1049B000002105462046FFF784FE40EA052085B227
:1049C00094F91000012180B201F0ABFF94F913308B
:1049D0000133CAD1FFF764FEC7E700BFD08D0B00DB
:1049E00020A1070008B5FFF79BFF40BA80B208BDC1
:1049F00038B588210446FFF7F5FF8A21A0822046BA
:104A0000FFF7F0FF8C21E0822046FFF7EBFF8E21BD
:104A100020832046FFF7E6FF902160832046FFF7C2
:104A2000E1FF9221A0832046FFF7DCFF9421E08381
:104A30002046FFF7D7FF962120842046FFF7D2FFBC
:104A4000982160842046FFF7CDFF9A21A08420465C
:104A5000FFF7C8FF9C21E0842046FFF7C3FF9E219B
:104A600020852046FFF7BEFFA12160852046FFF785
:104A7000FBFEE12184F82C002046FFF7B3FFE32181
:104A8000E0852046FFF7F0FEE42184F83000204660
:104A9000FFF7EAFEE52105462046FFF7E5FE00F0B8
:104AA0000F0343EA05106086E6212046FFF7DCFE8F
:104AB000E52105462046FFF7D7FEC0F3071343EA7A
:104AC0000510A086E7212046FFF7CEFE84F83600C9
:104AD00038BD000030B590F91030013385B0044680
:104AE0000D4623D10179006801F0F4F920680368CC
:104AF00029469B689847206801F0F4F921792068DD
:104B0000032201F0E4F9206803685B699847050215
:104B1000206803685B69984728430502206803689A
:104B20005B6998470543284605B030BD90F91330BE
:104B300001330CD11A4B009300238DF80430194B2C
:104B4000029368460123ADF80C30FFF7B0FD94F9ED
:104B50001000002180B201F0E4FE45F08001204603
:104B6000FFF7AFFD00212046FFF7ABFD0021050256
:104B70002046FFF7A6FD2843050200212046FFF747
:104B8000A0FD054394F91000012180B201F0C9FE97
:104B900094F913300133C6D1FFF782FDC3E700BF9C
:104BA000D08D0B0020A1070010B5FA210446FFF7B5
:104BB00091FFB0F5000F1FD0A18A9FED117A4B0035
:104BC000C1EB2022C3EBE011B4F91630594302FBCC
:104BD00002F3B4F918201B1353439B1303EBE12397
:104BE000E36003EB830380331B1207EE903AF8EE89
:104BF000E77A87EE870A10BD9FED020AFBE700BF48
:104C00000000C8420000C07F38B50446FFF7CCFF63
:104C1000FD212046FFF784FEB0F5004F38D0E16853
:104C2000B4F93420A1F59635B4F932100905C1EB79
:104C3000803305FB123303F58043DA1394F83030E8
:104C400094F936106B43DB126943891203F5004374
:104C50004B439B12B4F92E1003F500134B4303F59D
:104C600000539B135343DA1394F82C105243D21180
:104C70004A43A3EB221323EAE373B3F1C85FA8BF4F
:104C80004FF0C8531B1300EE103ABAEECB0A38BDF2
:104C90009FED010AFBE700BF0000C07F2DE9F8434C
:104CA0000546FFF781FFF7212846FFF713FFB0F510
:104CB000000F00F0B680E968B5F91C304FEAE17EDC
:104CC000B1F5FA314EF1FF3EDC1703FB0EF201FBAA
:104CD0000422A3FB013422441203A1FB01781C032C
:104CE00001FB0EF642EA1352B5F91E3008EB4608F6
:104CF0004FEAE37C03FB08F607FB0C66A3FB073CCB
:104D000066441B0A43EA06631B1942EB26226E8B9C
:104D100002F50042A3FB063406FB0244E3176210CF
:104D200053EA64044FF0000C7ED0B5F9244004FB34
:104D300008F64FEAE47907FB0966A4FB07473E44FF
:104D4000B5F922704FEAE77807FB0EFE01FB08EE8B
:104D5000A7FB01717144490441EAD73100117F0476
:104D60003F19C0F5801446EB010604F00040B5F988
:104D700020101CEB070740EA5400E407E41B06EB95
:104D8000C10640F6354160EB0606A4FB010401FBB9
:104D9000064103F0E1FCB5F92A20B5F928604FEA95
:104DA000613C430B43EAC14302FB0CF7D41703FBFE
:104DB0000477A2FB03243C4402FB0CF703FB0477BB
:104DC000A2FB03231F44530E43EAC7131B184FEAE9
:104DD000E67206FB01F4864641EB676702FB004181
:104DE000A6FB0E06B5F926403144C00C40EA41301E
:104DF00018184FEAE47547EBE141000A2D0140EA3B
:104E0000016045EA14752401201845EB212103F0C7
:104E100065FC9FED070A07EE900A27EE800ABDE8C1
:104E2000F8839FED040AFAE79FED030AF7E700BF56
:104E30000000803B0000C07F000000000000000078
:104E400008B52DED028BB0EE408AFFF727FF9FEDEE
:104E5000167AC0EE077AC7EE887A17EE900A03F04A
:104E600015F89FED0D1B41EC100B01F025FE0F49CD
:104E700053EC102B002002F0A9FE09A3D3E9002374
:104E800003F05CF803F00AFBBDEC028B00EE100AA5
:104E900008BD00BFAFF30080EBE2361AC05BC83F2D
:104EA0000000000040A5E5400000C8420000F03FBF
:104EB00030B5044690F91000421C85B019D1206825
:104EC00000F0D6FFD0212046FFF7CEFC6028A0607E
:104ED00045D12046B622E021FFF72AFC4FF4967018
:104EE00000F06CFC2046FFF713FD054628B3642054
:104EF000F6E7012180B201F014FD94F910000121C0
:104F000080B201F0FDFC94F91300431C04D1FFF7BB
:104F1000ABFB01F0BDF9D5E7012180B201F0F0FC57
:104F200094F91100012180B201F0EAFC94F9120019
:104F3000002180B201F0E4FCC4E72046FFF758FDF1
:104F4000052300931A4603212046CDE90155FFF7BA
:104F500041FC642000F032FC012005B030BD00208F
:104F6000FBE7772310B50371044601F03BFD206099
:104F70002046FFF79DFF30B9762323712046BDE818
:104F80001040FFF795BF10BD0022C0E90422016068
:104F90007047000010B5044600F0B4F9A369C01AC8
:104FA000074B98420AD9D4E9043293FBF2F3E36049
:104FB00000F0A8F90023C4E90433A06110BD00BFCC
:104FC00020A1070010B5836843600446008801F003
:104FD000D4FC2369A06018446369206101336361D4
:104FE0002046FFF7D7FFD4E90112511AB1F5C87F67
:104FF00010DCB2F52F7F0DDCE368D31A962B0BDCA7
:10500000C82902DDB2F52F7F08D1322BCCBF022098
:10501000032010BD0020FCE70120FAE70220F8E79A
:1050200010B5054B0360037C04461BB9406808B10A
:1050300000F084FB204610BD088E0B0010B504461E
:10504000FFF7EEFF20461421FFF729F8204610BD98
:1050500010B5034B03600446FFF7E2FF204610BD86
:10506000188E0B0010B50446FFF7F2FF20463021E2
:10507000FFF715F8204610BD00230122C3604361ED
:10508000028380F82A307047C0E9011208B5002277
:10509000C26001220274044A02604FF0FF32C26211
:1050A000FFF7EAFF08BD00BF188E0B00D0E902230E
:1050B00010B593423FBF42685C1CC460D15424BF0A
:1050C000012380F82A3010BD10B54369044643B16E
:1050D00000EB4303597E09B1FFF7E8FF6369013B29
:1050E0006361D4E90210636888424FF000022ABF6E
:1050F0005B181A5403F8012C10BD70B50446D0E9B2
:10510000025066682D1A134630440A46294600F0BC
:1051100025FB85422DBFE368A368E360C01836BF56
:105120000123E06084F82A3070BD0EB403B503AAF1
:1051300052F8041B0192FFF7E0FF02B05DF804EBA8
:1051400003B070472DE9F84304460E46174612B1E6
:105150002221FFF7ABFFDFF80C810025715D06EB24
:105160000509002974D0D4E902329A4270D20B06A4
:1051700034D501F0F003E02B05F101091DD116F83B
:10518000092002F0C003802B39D105F1020916F87D
:10519000093003F0C000802831D103F03F039201B1
:1051A00043EA013302F47C621A4392B2414620463C
:1051B000FFF7BBFF4D460135D0E701F0E003C02B00
:1051C0001DD116F8093003F0C002802A17D18901D9
:1051D00001F4F86203F03F031A43E7E70D290AD808
:1051E00007290CD9A1F10803052B08D8DFE803F043
:1051F00009231707111D222923D05C2921D020461D
:1052000004E05C212046FFF751FF6221FFF74EFFCB
:10521000D1E75C212046FFF749FF6621F6E75C21D4
:105220002046FFF743FF6E21F0E75C212046FFF7A1
:105230003DFF7221EAE75C212046FFF737FF74212A
:10524000E4E75C212046FFF731FF99F80010DDE725
:105250002FB120462221BDE8F843FFF727BFBDE864
:10526000F88300BFEC8D0B00426900EB42031A7E0D
:1052700012B100221A7670472C21FFF717BF73B5C1
:10528000436901910133082B16460FD8FFF7ECFF55
:105290004369019900EB43045A1C01254261A5763C
:1052A000E676FFF703FF284602B070BD0020FBE75B
:1052B00007B5C16A002953EC102B08DB0A468DEDB7
:1052C000000B0649FFF731FF03B05DF804FB04490A
:1052D00003B05DF804EBFFF728BF00BFF38D0B00B0
:1052E000F98D0B0008B5024B1B685B6C019308BD80
:1052F0004802030008B5024B1B685B68019308BDB8
:105300001802030008B5024B1B685B69019308BDD6
:105310001802030008B5024B1B685B68019308BDC7
:105320002C02030008B5024B1B689B68019308BD63
:105330002C02030008B5024B1B68DB68019308BD13
:105340002C02030008B5024B1B681B69019308BDC2
:105350002C02030008B5024B1B685B69019308BD72
:105360002C02030008B5024B1B681B6B019308BDA0
:105370002C02030008B5024B1B68DB6C019308BDCF
:105380002C02030008B5024B1B68DB68019308BDC3
:105390002802030008B5024B1B689B69019308BDF6
:1053A0002802030008B5024B1B68DB69019308BDA6
:1053B0002802030008B5024B1B681B6A019308BD55
:1053C0002802030008B5024B1B685B6A019308BD05
:1053D0002802030008B5024B1B689B6A019308BDB5
:1053E0002802030008B5024B1B68DB6A019308BD65
:1053F0002802030008B5024B1B681B6B019308BD14
:105400002802030008B5024B1B685B6B019308BDC3
:105410002802030008B5024B1B681B6C019308BDF2
:105420002802030008B5024B1B681B6D019308BDE1
:105430002802030008B5024B1B685B69019308BD95
:105440006402030008B5024B1B689B68019308BD0A
:105450006802030008B5024B1B68DB68019308BDB6
:105460006802030008B5024B1B681B68019308BD66
:105470003002030008B5024B1B685B69019308BD4D
:105480003002030008B5024B1B68DB69019308BDBD
:105490003002030008B5024B1B681B6A019308BD6C
:1054A0003002030008B5024B1B685B6A019308BD1C
:1054B0003002030008B5024B1B68DB6B019308BD8B
:1054C0003002030008B5024B1B681B6C019308BD3A
:1054D0003002030008B5024B1B685B6C019308BDEA
:1054E0003002030008B5024B1B68DB68019308BD5E
:1054F0003C02030008B5024B1B681B69019308BD01
:105500003C02030008B5024B1B685B69019308BDB0
:105510003C02030008B5024B1B689B69019308BD60
:105520003C02030008B5024B1B68DB69019308BD10
:105530003C02030008B5024B1B681B6A019308BDBF
:105540003C02030008B5024B1B689B6A019308BD2F
:105550003C02030008B5024B1B681B6C019308BD9D
:105560003C02030008B5024B1B681B68019308BD91
:105570004C02030008B5024B1B685B68019308BD31
:105580004C02030008B5024B1B681B69019308BD60
:105590004C02030008B5024B1B685B69019308BD10
:1055A0004C02030008B5024B1B689B69019308BDC0
:1055B0004C02030008B5024B1B68DB69019308BD70
:1055C0004C02030008B5024B1B681B6A019308BD1F
:1055D0004C02030008B5024B1B685B68019308BDD1
:1055E0002002030008B5024B1B685B69019308BDEC
:1055F0002002030008B5024B1B68DB6C019308BD59
:105600002002030008B5024B1B685B6D019308BDC7
:105610002002030008B5034B1B68D3F888300193C0
:1056200008BD00002002030008B5034B1B68D3F837
:105630009430019308BD00002002030008B5024B1E
:105640001B685B69019308BD4402030008B5024B67
:105650001B681B6A019308BD4402030008B5024B96
:105660001B68DB6B019308BD4402030008B5024BC5
:105670001B685B68019308BD4002030008B5024B3C
:105680001B689B68019308BD4002030008B5024BEC
:105690001B68DB68019308BD4002030008B5024B9C
:1056A0001B681B69019308BD4002030008B5024B4B
:1056B0001B685B69019308BD4002030008B5024BFB
:1056C0001B689B69019308BD4002030008B5024BAB
:1056D0001B68DB69019308BD4002030008B5024B5B
:1056E0001B681B6A019308BD4002030008B5024B0A
:1056F0001B681B6B019308BD4002030008B5024BF9
:105700001B685B6B019308BD4002030008B5024BA8
:105710001B681B6C019308BD4002030008B5024BD7
:105720001B685B6C019308BD4002030008B5024B87
:105730001B681B68019308BD1C02030008B5024BDF
:105740001B685B68019308BD1C02030008B5024B8F
:105750001B689B68019308BD1C02030008B5024B3F
:105760001B685B6A019308BD1C02030008B5024B6D
:105770001B68DB6A019308BD1C02030008B5024BDD
:105780001B681B6B019308BD1C02030008B5024B8C
:105790001B68DB6B019308BD1C02030008B5024BBC
:1057A0001B681B6C019308BD1C02030008B5024B6B
:1057B0001B685B6C019308BD1C0203000021FFF70E
:1057C00011BF10B5836804460BB901F071F9C368C5
:1057D0009847A3681BB103222146204698472046DC
:1057E0001021BDE81040FEF75ABC10B5836804468E
:1057F00013B1032201469847204610BD13B50B464E
:105800000246D0E900016C4684E8030093E80300F7
:1058100082E8030094E8030083E8030002B010BDAF
:10582000024800230360FFF75DBD00BFC4E603200C
:1058300070470020704710B510210446FEF72FFC7A
:10584000204610BD08B5FFF7F6FF08BD30B50022B1
:105850004FF69C74026084808D888C800C688580F3
:1058600004600A6030BD10B504460068FFF766FFAB
:10587000204610BD38B5C468F4B12378022B03D19B
:1058800004F10C00FFF7EFFF656835B12846FFF71C
:10589000ACFF10212846FEF702FCA56835B128466A
:1058A000FFF7A3FF10212846FEF7F9FB204614213D
:1058B000BDE83840FEF7F3BB38BD0B6803604B68AA
:1058C000436013B15A6801325A60704737B50446D5
:1058D00068460D46FFF7F1FF009B019A2360626066
:1058E000002301A801930093FEF7E8FC35B1281DC1
:1058F000FEF7E4FC08212846FEF7D1FB204603B062
:1059000030BD826810B50AB901F0D2F8BDE8104088
:10591000C368184708B5006800F11001FFF7F1FFF0
:1059200008BD826810B50AB901F0C2F8BDE81040A0
:10593000C368184708B5006800F11001FFF7F1FFD0
:1059400008BD000038B500230446036010200D4652
:10595000FEF7A1FB28B10123C0E90133024B03602C
:10596000C5602060204638BD288E0B0038B5002366
:1059700083608B6804460D462BB102229847EB6882
:10598000E360AB68A360204638BD0000F0B589B085
:1059900004686846FFF75AFF4FF00203D4E84F2F20
:1059A000002A03D1C4E8413F0029F7D125D104F1F1
:1059B0000C0569462846FFF749FFBFF35B8F0123BB
:1059C0006370002004F10803BFF35B8F53E8006F9E
:1059D00043E80002002AF9D1BFF35B8F6EB1FFF7F5
:1059E00009FE78B129463046FFF78BFF3046FFF7B6
:1059F000FCFE10213046FEF752FB6846FFF733FFEE
:105A000009B0F0BD314602A8FFF7B0FFE068B4F975
:105A1000105008B103F0A4F806901020ADF81C5007
:105A2000FEF739FB0546E8B1002787601820FEF72E
:105A300032FB044688B10146876002A8FFF7DEFE0C
:105A4000049BA268A360059B049206A9E268E36038
:105A500004F110000592FFF7F9FE084BEB60084BCC
:105A60002C60AB6006A8FFF7FEFE02A8FFF7BDFEA4
:105A7000002229460348FFF7C5FDB7E715590B007B
:105A8000995B0B00C3570B002DE9F04F8BB0054617
:105A90009DF850A00F4690469946FFF7CFFD07AE00
:105AA000834638BB4FF62E73059005A93046ADF8F6
:105AB0001830FFF7CBFE1420FEF7EDFA044648B18C
:105AC000022303700123C0E901BB437031460C304F
:105AD000FFF7BCFE2846214640F8044BFFF732FF93
:105AE0003046FFF7C0FE05A8FFF7BDFE28460BB005
:105AF000BDE8F08F0C2300241420CDE9084407935F
:105B0000FEF7C9FA014618B1C0E9014404704470B7
:105B100004A80391FFF716FF1E4B08930820FEF719
:105B2000BAFA044610B103A9FFF7C7FE00965FFA60
:105B30008AF34A46414638460994FFF787FDB8B9CB
:105B4000039B5B7803F0FF0293B94FF69C7305A9A2
:105B500003A80592ADF81830FFF718FF05A8FFF766
:105B600082FE05A80999FFF7B1FE06A8FEF7A6FB7D
:105B700003A905A8FFF7A1FE059B069A2B606A60A2
:105B8000002306A806930593FEF798FB04A8FEF7EA
:105B900095FBABE7155C0B00012AF8B5054603D170
:105BA0000B6803600020F8BD022A10D0032AF9D147
:105BB0000468002CF6D004F11000FFF754FE2046D4
:105BC000FFF713FE18212046FEF769FAEAE71820CE
:105BD0000E68FEF760FA044650B13146FFF7C6FE84
:105BE0003069B6F9147008B102F0BAFF2061A782DB
:105BF0002C60D7E738B5002383608B6804460D46D8
:105C00002BB102229847EB68E360AB68A3602046A3
:105C100038BD0000F0B589B004460D4601A8114614
:105C2000FFF754FEA4B124B21DB1284602F098FF3C
:105C3000054601A803A90395ADF81040FFF7A6FE9D
:105C400003A8FFF710FE02A8FEF738FB09B0F0BD6D
:105C5000019D0123D5E84F2F002A03D1C5E8413F1C
:105C60000029F7D1EFD12B73BFF35B8F6B702B1D26
:105C7000BFF35B8F53E8006F43E80042002AF9D17D
:105C8000BFF35B8F002EDED02046FFF7B3FC074644
:105C900060B105F10C013046FFF743FE3046FFF7D7
:105CA000A4FD10213046FEF7FAF9CCE7314603A8EF
:105CB000FFF7A0FF2B7B8DF81C301020FEF7EBF9CF
:105CC0000546D0B187601420FEF7E5F9044678B1A7
:105CD0008760014603A8FFF791FD059BA268A360BA
:105CE000069B0592E268E3609DF81C3006922374DF
:105CF000064BEB60064B2C60AB6003A8FFF775FD0D
:105D0000002229460348FFF77DFCC7E735590B0001
:105D1000195D0B00C3570B00012A70B5044603D16F
:105D20000B680360002070BD022A0CD0032AF9D151
:105D30000468002CF6D02046FFF757FD14212046BA
:105D4000FEF7ADF9EEE714200E68FEF7A4F905465C
:105D500020B13146FFF74EFF337C2B742560E1E71D
:105D6000002240681146FFF7B9BC00224068114686
:105D7000FFF7C4BC40680022FFF7B8BC40680022AF
:105D800081F00101FFF7A2BC002340681A461946C2
:105D9000FFF794BC002340681A461946FFF786BCFB
:105DA000002240681146FFF779BC00224068114686
:105DB000FFF764BC406800220221FFF767BC0023A4
:105DC00040681A46FFF752BC024B03225A60024A4F
:105DD0001A607047C8E60320448E0B007047F8B580
:105DE000064615460C468F18BC4206D0336814F898
:105DF000011B9B6830469847F6E72846F8BD007CB3
:105E00000022FFF7D7BA007C0021FFF7DBBA007C45
:105E10000021FFF7DFBA007C0021FFF7E3BA007C26
:105E20000021FFF7E7BA10B514210446FEF737F951
:105E3000204610BD38B5044615464FF47A7300224B
:105E4000C4E90123094B2174084623602946FFF762
:105E5000E1FABF3008D16B69DB0705D56868FFF749
:105E60006DFCE868FFF76AFC204638BD808E0B00A9
:105E70000023007C1A461946FFF784BA7FB500223A
:105E80001423CDE90122ADF804300B788DF80830E9
:105E90004B680393CB680493007C0B7A059301A9AC
:105EA000FFF7C0FA07B05DF804FB1FB5003B8DF8A3
:105EB00000104FF06401039118BF0123694601925D
:105EC0008DF80830FFF7DAFF05B05DF804FB012319
:105ED000FFF7EBBF007C0022FFF75CBA007C0022DA
:105EE000FFF760BA0121FFF7F9BF704710B518211D
:105EF0000446FEF7D4F8204610BDF0B5037D062B0E
:105F00008DB00E4600F104074FF0000412D000F1EE
:105F1000080515F8011D0A22304600F054F9AF4279
:105F2000044419D0002CF4D02E21304600F03CF966
:105F30000444EEE72F236A4639460A208DF80040D4
:105F4000FFF778FA684602F028FE33680246DB68FD
:105F5000694630469847044620460DB0F0BD000023
:105F600010B5054B0446112240F8043B002102F015
:105F7000C1FD204610BD00BFA88E0B000346074A96
:105F800010B543F8042B01F1100251F8044B43F80B
:105F9000044B9142F9D10A781A7010BDA88E0B00FB
:105FA00010B59DF8084044EA032343EA024242EA5E
:105FB000016104234160037510BD000007B5064B65
:105FC0000360CB7800938B784A780978FFF7E8FF75
:105FD00003B05DF804FB00BFA88E0B00014B024A22
:105FE0001A607047D0E60320B48E0B00002340688F
:105FF0001A46FFF73BBB406800220221FFF746BB71
:10600000002240681146FFF739BB00224068114664
:10601000FFF744BB002340681A461946FFF746BB0A
:10602000002340681A461946FFF748BB4068002124
:10603000FFF76CBB40680021FFF770BB406800228F
:1060400081F00101FFF742BB40680022FFF74EBB21
:10605000002240681146FFF751BB002240681146FC
:10606000FFF73CBB2DE9F04395B014460D460746BB
:10607000FFF776FF00211C220DA8009102F03AFDE7
:1060800040230C9320466B460CAA0021FFF7E2F94F
:10609000044600284BD1024601216868FFF7FEFA4A
:1060A0000221804622466868FFF7F8FA009E814682
:1060B0002146002E3BD0002939D17368022B03D032
:1060C0000A2B11D0F669F4E7B8F1000FFAD0716924
:1060D00006A8043107ADFFF771FF0FCD3C1D0FC4BB
:1060E0002B6823704146EDE7B9F1000FEAD07469DF
:1060F000102201A802F0FEFC06238DF8143001AD39
:1061000004F108031834186859682A4603C2083392
:10611000A3421546F7D101A906A807ADFFF72EFF48
:106120000FCD3C1D0FC42B6823704946CAE7009869
:10613000FFF788F9384615B0BDE8F083024B034AF3
:106140001A6000225A607047D4E60320C08E0B000C
:10615000F8B506460D468F180024BD420CD03368B2
:1061600015F8011B9B6830469847031E01DB1C4451
:10617000F3E7002C08BF1C462046F8BD13B50446C3
:10618000084659B1019102F008FD23680199DB68C6
:106190000246204602B0BDE81040184702B010BDCC
:1061A00008B5FFF7EBFF08BD03689B68184738B5D3
:1061B0000D210546FFF7F8FF0A2104462846FFF7A0
:1061C000F3FF204438BD30B58BB00023012A8DF891
:1061D000243098BF0A2209AC0D46B1FBF2F101FB55
:1061E000125303F0FF03092B94BF30333733DBB274
:1061F000AA4204F8013DEFD92146FFF7BFFF0BB0DB
:1062000030BD2DE9F04186B000AF05460E46381D81
:10621000142114463B60FFF7A1FA13280ED8391D4C
:106220002846FFF7ABFF04461EB12846FFF7BFFF25
:10623000044420461837BD46BDE8F08100F108034C
:1062400023F00703E846ADEB030D2246411C3B68F3
:106250006846FFF783FA69462846FFF78FFF044632
:10626000C546E1E7014B00229A607047DCE6032057
:106270000021FFF72FB90021FFF724B910B504461C
:1062800008462170FFF7FEF800236360204610BD2A
:1062900013B504460078FFF7EEFF58B92078019057
:1062A0004FF6FF71FFF7DEF8019802B0BDE810402D
:1062B000FFF7DEBF02B010BD0078FFF7D9BF0000C6
:1062C000400830B51860002418688842E5B206D945
:1062D0000134082C02D040081860F5E70725024B6E
:1062E0005B5D137030BD00BFF48E0B002DE9F043F1
:1062F00006468FB000780C46FFF7BDFF00281BDB79
:1063000035781422002109A802F0F4FB0B230022A7
:1063100009A92846ADF82430FFF7C4F89DF82D30C0
:1063200013B19DF82C5055B10027B946B846012548
:1063300023795DB1C3B100200FB0BDE8F083DDF873
:1063400030809DF834909DF83570F1E7002B35D101
:10635000A368434508D18DF820908DF82170BDF8D1
:106360002020A3899A42E6D00023A1688DF80F303F
:106370000A9804AB0DF10F02FFF7A2FF217985B94E
:1063800089B9A36843450ED38DF820908DF821700C
:10639000BDF82020A3899A4205D1049B434502D130
:1063A000C9E70029F9D100230193637B00939DF88D
:1063B0000F20237B3078FFF77DF8BCE7CDE900554F
:1063C0002B462A460121F5E708B50078FFF752F879
:1063D000C0B208BD10B504460068FFF7AFF920460B
:1063E00010BD10B50446006808B1FFF7A7F90023F7
:1063F000C4E90133236010BD38B504460D4600687A
:106400000131FFF7A3F910B1C4E90005012038BD3F
:1064100010B50368044623B143688B4201D30120C1
:1064200010BD2046FFF7E8FF0028F9D0A368002B35
:10643000F5D122681370F2E737B50D461146019287
:106440000446FFF7E5FF019A28B92046FFF7C9FF88
:10645000204603B030BDA2602946206802F03CFB14
:106460002268A3680021D154F2E7002313B5C0E9E4
:10647000003304468360037341B10846019102F082
:106480008CFB019902462046FFF7D6FF204602B05A
:1064900010BD884210B5044605D00B682BB18A6840
:1064A0001946FFF7C9FF204610BDFFF79AFFFAE72C
:1064B00010B500230446C0E9003383600373FFF77F
:1064C000E8FF204610BD13B5044659B108460191B6
:1064D00002F063FB019902462046FFF7ADFF20461C
:1064E00002B010BDFFF77DFFF9E70000054B022267
:1064F0001A60054B054A9A600020C3E90000FFF7C7
:1065000069B800BFF8E60320ECE603200000FFFFB7
:10651000024B1A68024B1A60704700BF98E50320CF
:10652000FCE6032070474174704708B5007CFFF714
:1065300009F820EAE07008BD08B5007CFEF7DAFF34
:1065400020EAE07008BD08B5007CFEF7E3FF40EAF2
:10655000E07008BD08B5007CFEF7D4FF40EAE070AB
:1065600008BD007CFEF7DEBF37B5457C04462DB183
:10657000207C03B0BDE83040FEF7B4BF007C019141
:10658000FEF7E0FF00280199F2DC284603B030BD99
:1065900010B514210446FDF782FD204610BD000011
:1065A00010B54FF47A730446084611460022C4E938
:1065B0000123044B2360012320746374FEF7CAFF98
:1065C000204610BD208F0B00417470477047704704
:1065D00008B50021007CFEF7E5FF40EAE07008BD49
:1065E00008B50121007CFEF7DDFF40EAE07008BD40
:1065F00008B5007CFEF7CEFF20EAE07008BD08B5C4
:10660000007CFEF7BFFF20EAE07008BD13B504462A
:10661000007C0191FEF7BEFF0028019901DC607C3F
:1066200020B1207CFEF7C6FF20EAE07002B010BD6A
:10663000007CFEF7C7BF10B514210446FDF72FFDFF
:10664000204610BD10B54FF47A7304460846002169
:10665000C4E90113044B23600123207463741146C1
:10666000FEF780FF204610BD508F0B00007C0022FB
:10667000FEF780BF10B514220446002102F03AFA5A
:10668000204610BD10B50F4C88B003A8FFF7F2FFED
:106690002178BFF35B8F11F001010FD120460191EA
:1066A000FDF7FFFC019948B103AA0748FFF7CAFFAD
:1066B0002046FDF7FBFC054802F008FA024808B046
:1066C00010BD00BF00E7032004E70320CD650B00E9
:1066D000002240681146FEF7E1BF002240681146E3
:1066E000FEF7FCBF002240681146FFF707B840687C
:1066F0000022FEF7FBBF4068002281F00101FEF797
:10670000E5BF002340681A461946FEF7D7BF0023AD
:1067100040681A461946FEF7C9BF00224068114674
:10672000FEF7ACBF406800220221FEF7AFBF002396
:1067300040681A46FEF79ABF024B04225A60024A8A
:106740001A60704718E70320808F0B00014B186018
:10675000704700BFA0E5032008B50B4B43B1FFF71E
:1067600091FF03681B699847002801DDAFF30080A3
:10677000064B43B100F076F903681B69984700287F
:1067800001DDAFF3008008BD000000000000000044
:1067900008B5FFF7E1FFFEF7B5FD014B186008BD36
:1067A00028E703200548064A064908B5121A02F0F0
:1067B00093F9054B054A1A6008BD00BF00F4032099
:1067C00004F403209C900B0000F403201E1C279A65
:1067D00007B5002300931A466FF07701FEF724FFF8
:1067E00003B05DF804FB000007B543880A2B08D00E
:1067F000502B0BD1094B1B684BB103B05DF804EB78
:106800001847FFF7E5FF03B05DF804FB0023009392
:106810001A466FF07701FEF707FFF4E724E703203D
:1068200010B512480021FEF7C1FF114B1A68114B39
:106830009A42114B0CBF012200221A7001D0FFF7BF
:10684000B1FFFEF757FD044602F05CF90B4B13B1A4
:106850002046AFF3008000210848FEF7FFFEBDE8A8
:10686000104007480021FEF7D5BE00BF4D670B0062
:1068700000F403201E1C279A20E7032000000000DC
:10688000E9670B00232813B502D9002002B010BD20
:10689000A0F10B03022B1AD8174C2178BFF35B8FA2
:1068A00011F001010BD120460191FDF7FAFB01998E
:1068B00028B11248FFF7E2FC2046FDF7F7FB0F4B2B
:1068C0001878FEF7E7FD0028DFD10120DEE7012878
:1068D00009D800F087F80021007CFEF793FD80F0D6
:1068E0000100C0B2D2E709380128EED800F0BAF8AA
:1068F000007CFEF71FFEF2E7B8E60320BCE60320AB
:10690000232838B504460D460AD8FF2908D0FFF7DA
:10691000B9FF28B129462046BDE83840FEF702BD40
:1069200038BD38B504460D46FEF704FDFF2810D0EB
:10693000062804D84D2323FA00F0C30709D42046C3
:10694000FFF7A0FF28B129462046BDE83840FEF7F2
:10695000F9BC38BD10B50446FEF7ECFC031FDBB2F2
:10696000012B08D92046FFF78DFF20B12046BDE856
:106970001040FEF7EFBC002010BD0D2810B50446F6
:106980009CBF0E34A4B22046FFF77CFF50B1032118
:106990002046FEF7BFFC032804D12046BDE8104086
:1069A000FEF7E0BC002010BDFEF7E4BC704700001D
:1069B00038B50A4B0360012304464361084920208F
:1069C00000F074F8202560600549A560284600F0B5
:1069D0006DF8C4E90305204638BD00BF180001006A
:1069E000B48F0B0030B50E4D2978BFF35B8F11F0DB
:1069F000010487B011D12846FDF753FB68B1684602
:106A0000FFF7D6FF6A4621460648FFF713FA2846E5
:106A1000FDF74CFB044802F059F8024807B030BDBE
:106A20002CE7032030E70320AD690B00704700001E
:106A300038B5044614252A46002102F05BF825806B
:106A40004025074925812846258200F02FF8044972
:106A50006060284600F02AF8E060204638BD00BF9C
:106A6000B48F0B0030B50E4D2978BFF35B8F11F05A
:106A7000010487B011D12846FDF713FB68B101A8C6
:106A8000FFF7D6FF01AA21460648FFF789FD2846F1
:106A9000FDF70CFB044802F019F8024807B030BDBE
:106AA00044E7032048E703202D6A0B00FDF7F5BA01
:106AB00008B5FEF75BFE0000F8B52DED028B57EC34
:106AC000106B55EC114B00F0CBF8634BB0EE408AE5
:106AD000F0EE608A93F9003001332AD022462B462B
:106AE0002046294601F0C4FC18BB32463B463046DE
:106AF000394601F0BDFC002844D100220023304675
:106B0000394601F083FCD8B10022002320462946F3
:106B100001F07CFC00283DD145EC104B00F010FF4B
:106B200038B1204629460022002301F079FC0028D4
:106B30005CD1B0EE480AF0EE680ABDEC028BF8BDFD
:106B4000B0EE480AF0EE680A00F0FAFE58B351ECD5
:106B5000180B0022002301F059FC0028E9D047EC73
:106B6000106B00F0EDFE0028E3D045EC104B00F078
:106B7000E7FE0028DDD0FEF709FE22239FED2E8BD5
:106B80000360D6E7204629460022002301F03EFCA0
:106B90000028CED09FED2A8BB0EE480AF0EE680AAE
:106BA000BDEC028BF8BD47EC106B00F0C9FE00286D
:106BB000CDD045EC104B00F0C3FE0028C7D053ECFD
:106BC000182B18EE100A194601F052FC20BBFEF7F4
:106BD000DDFD034622221A6030463946002200239A
:106BE00001F01EFC48B99FED188BA2E7FEF7CEFD21
:106BF00021239FED178B03609BE745EC104B00F0C2
:106C0000B3FE224651EC100B2B4601F0FFFB00288F
:106C1000E9D19FED0F8B8CE7FEF7B8FD0022002332
:106C2000212101601046194601F0B2FA41EC180B1F
:106C30007FE700BFAFF3008000000000000000000D
:106C4000000000000000F03F000000000000F07FA6
:106C5000000000000000F0FF9CE5032000000000A1
:106C60002DE9F04F57EC116B2DED0C8B27F0004AFE
:106C70005AEA060287B03DD055EC104B724925F018
:106C80000048884510EE102AA9462CDC11EE103A77
:106C9000BB4636D08A4526DC6B498A4521D0B9F1FE
:106CA000000F39DB00210091002B51D1664B9A4532
:106CB00000F0A280654B9A4500F0B080BBF1804F98
:106CC00000F0C084624B9B4542D1B9F1000F3FDB1D
:106CD00045EC104B07B0BDEC0C8BBDE8F04F00F05D
:106CE00059BD002BDBD008F1404808F5801858EA60
:106CF000020309D19FED500B07B0BDEC0C8BBDE832
:106D0000F08F0CB9C245C7DD524807B0BDEC0C8B03
:106D1000BDE8F04F00F020BE4F498A4500F3858062
:106D2000A1F154718A450FDD4FEA2A51A1F2FF31DA
:106D3000142940F39B84C1F1340123FA01F000FAD5
:106D400001F1994200F0ED8400210091002BB1D0B7
:106D500045EC104B029200F0E9FD029A5ABBB8F1E3
:106D6000000F04D0394B29F040429A4223D1BBF1A5
:106D7000000F07DA53EC102B3449002001F008FA19
:106D800041EC100BB9F1000FB6DA009B08F1404856
:106D900008F5801858EA030340F08D8453EC102B5B
:106DA0001046194600F012FF02460B4601F0F0F9BA
:106DB00041EC100BA0E7009A4FEAD973013B049312
:106DC000134335D0254B9A454CDD03F104739A45A6
:106DD000234B40F3DB83984540F36083BBF1000F06
:106DE00040F3608316A3D3E900231046194601F04F
:106DF000A5F841EC100B7FE708F1404303F5801341
:106E000013433FF477AF164B984540F37A83BBF1B9
:106E1000000FC0F2478347EC106B6DE7BBF1000F2A
:106E2000C0F21A8445EC104B66E7022100913BE763
:106E300022462B46B4E700BF000000000000F03FF0
:106E40009C7500883CE4377E0000F07F0000F03F36
:106E50000000E03FB88F0B00FFFF3F430000E04120
:106E6000FFFFEF3FE44B09EA0303002253B951EC63
:106E7000100BE24B01F062F841EC100B10EE908A1F
:106E80006FF034024FEA2853A3F2FF339A18DC4B19
:106E90000592C8F3130848F07F54984544F4401411
:106EA00007DDD84B984540F3148401320592A4F5D0
:106EB00080149FEDB96B9FEDBA7B53EC162BB0EEAF
:106EC00047CAF0EE67CA0025B0EE47DAF0EE67DA9F
:106ED0005BEC10ABA3465046594643EC1A2B00F02E
:106EE00075FE53EC1A2B804689465046594600F0F1
:106EF0006FFE02460B460020C34901F049F941EC00
:106F00001B0B404653EC1B2B494601F017F841EC94
:106F1000180B0A460146CDE90212002102916410C5
:106F20004BEC19AB44F00054DDE902AB04F500234F
:106F30000020591904460D4602460B465046594654
:106F400000F0FCFF02460B464046494600F03EFE7C
:106F500053EC1A2B804689462046294600F036FE1F
:106F600002460B4651EC190B00F030FE52465B46D0
:106F700000F0E4FF02460B464046494600F026FE7C
:106F800053EC1B2B00F0DAFF53EC182B41EC190BE0
:106F900051EC180B00F0D2FF83A3D3E90023044681
:106FA0000D4600F0CBFF82A3D3E9002300F010FED2
:106FB00022462B4600F0C2FF7FA3D3E9002300F056
:106FC00007FE22462B4600F0B9FF7DA3D3E900233C
:106FD00000F0FEFD22462B4600F0B0FF7AA3D3E975
:106FE000002300F0F5FD22462B4600F0A7FF78A312
:106FF000D3E9002300F0ECFD2246804689462B466B
:107000002046294600F09AFF02460B464046494674
:1070100000F094FF524604460D465B4651EC180BB7
:1070200000F0D6FD53EC192B00F088FF22462B46CA
:1070300000F0CEFD5246804689465B465046594692
:1070400000F07CFF02460B4643EC1A2B6F4B0022EC
:1070500000F0BEFD42464B4600F0BAFD00240D464E
:1070600022462B465046594600F068FF674B824641
:107070008B4600222046294600F0A8FD53EC1A2B2F
:1070800000F0A4FD02460B464046494600F09EFD36
:1070900053EC182B00F052FF22462B4604460D46B7
:1070A00051EC190B00F04AFF02460B4620462946D8
:1070B00000F08EFD8046894642464B465046594672
:1070C00000F086FD44A3D3E90023002004460D46CA
:1070D00000F034FF524641EC190B5B46204629462E
:1070E00000F074FD02460B464046494600F06EFD36
:1070F0003BA3D3E9002300F021FF02460B462046C4
:10710000294614461D4638A3D3E9002300F016FF94
:1071100002460B462046294600F05AFD53EC1D2B33
:1071200000F056FD80460598894600F09DFE4246D7
:1071300082468B464B4651EC190B00F049FD53EC4F
:107140001C2B00F045FD52465B4600F041FD5246C7
:107150005B46002004460D4600F038FD53EC1C2B26
:1071600000F034FD53EC192B00F030FD02460B46C5
:107170004046494600F02AFD009B049A013B134318
:1071800082468B4640F0B6819FED197BB0EE478A70
:10719000F0EE678A3CE000BF000000000000F03F16
:1071A0000000000000000000EF4E454A287ECA3F64
:1071B00065DBC9934A86CD3F01411DA96074D13F6B
:1071C0004D268F515555D53FFFAB6FDBB66DDB3F7D
:1071D000033333333333E33F000000E009C7EE3FAE
:1071E000FD033ADC09C7EE3FF5015B14E02F3EBE1C
:1071F000000000000000F0BF0000F07F00004043EE
:107200008E98030079B60B000000F03F00000840A4
:107210000023CDE900670093DDE90089304642464E
:107220004B46394600F0D2FC22462B4600F086FE43
:1072300032463B4606460F465046594600F07EFE13
:1072400002460B463046394600F0C2FC42464B46E9
:1072500006460F462046294600F070FE04460D46BD
:107260002B4630463946224600F0B2FCC24B9942CA
:10727000804689468A4640F3188101F13F4303F571
:10728000E003034340F00782A3A3D3E90023304681
:10729000394600F09DFC02460B4640464946904662
:1072A000994622462B4600F091FC02460B4640468A
:1072B000494601F0D3F8002840F0ED81CAF30A53A3
:1072C0004FF48012A3F2FE3342FA03F35344AB4966
:1072D000C3F30A52A2F2FF3241FA02FCC3F31301D4
:1072E00041F48011C2F1140241FA02F2002023EAB3
:1072F0000C01BAF1000F00920B46024602DA009927
:10730000494200912046294600F060FC009B1B0585
:10731000029302460B4604460D463046394600F0BD
:1073200057FC89464FF000087DA3D3E9002340466F
:10733000494600F003FE22462B4682468B464046D5
:10734000494600F043FC02460B463046394600F001
:107350003DFC75A3D3E9002300F0F0FD74A3D3E94D
:10736000002304460D464046494600F0E7FD02462C
:107370000B462046294600F02BFC06460F463246B7
:107380003B465046594600F023FC52465B460446B5
:107390000D4600F01BFC02460B463046394600F015
:1073A00015FC2246804689462B462046294600F099
:1073B000C5FD61A3D3E9002306460F4600F0BEFDDC
:1073C0005FA3D3E9002300F001FC32463B4600F006
:1073D000B5FD5DA3D3E9002300F0FAFB32463B463E
:1073E00000F0ACFD5AA3D3E9002300F0EFFB3246D6
:1073F0003B4600F0A3FD58A3D3E9002300F0E8FBCF
:1074000032463B4600F09AFD02460B46204629468E
:1074100000F0DCFB06460F4632463B462046294636
:1074200000F08CFD02460B463046394616461F4694
:1074300000224FF0804300F0C9FB02460B46304665
:10744000394600F0A5FE424606460F464B4620460A
:10745000294600F073FD42464B4600F0B9FB024658
:107460000B463046394600F0B1FB22462B4600F071
:10747000ADFB02460B460020414900F0A7FB029AF3
:107480000B461344B3F5801FC0F24381194653ECF9
:10749000182B00F053FD41EC100B2DE4BBF1000F55
:1074A000FFF6A0AC9FED2E0B26E4DFF8DCC021F048
:1074B0000043634540F3E780324B0B4403430AD15A
:1074C00022462B4600F082FB32463B4600F0BCFFD2
:1074D00000283FF4F3AE24A3D3E9002351EC180BAA
:1074E00000F02CFD20A3D3E9002300F027FD41ECA0
:1074F000100B01E49FED1E7BB0EE478AF0EE678A29
:1075000086E6BBF1000FCDDA07F1004300EE106A0A
:1075100000EE903AFFF7F0BBFE822B654715973CD3
:1075200000000000432EE63FEF39FAFE422EE63F10
:10753000396CA80C615C20BED0A4BE726937663E6F
:10754000F16BD2C541BDBB3E2CDE25AF6A56113F63
:1075500093BDBE166CC1663F3E5555555555C53F4A
:10756000000000000000000059F3F8C21F6EA501E2
:10757000000000000000F03FFFFF8F40FFFF0F0002
:107580000000F03F00346F3FFFCB9040984585DB13
:107590007D4B98453FF722AC51EC100B7A4B002203
:1075A00000F014FB68A3D3E9002304460D4600F065
:1075B000C5FC67A3D3E9002382468B4620462946B3
:1075C00000F0BCFC714B41EC180B00222046294610
:1075D00000F0B4FC02460B465FA1D1E9000100F0C7
:1075E000F5FA22462B4600F0A9FC02460B46002085
:1075F000674900F0EBFA2246804689462B46204632
:10760000294600F09BFC02460B464046494600F0E6
:1076100095FC53A3D3E9002300F090FC02460B46EF
:1076200051EC180B00F0D2FA8046894642464B4690
:107630005046594600F0CCFA002052465B460446BC
:107640000D4691E522462B462046294600F076FC61
:1076500041EC100BFFF750BB4B49002022462B4654
:1076600000F096FD41EC100BFFF746BB002B44D118
:10767000C1F114014AFA01F000FA01F151455AD062
:107680000093FFF717BB424A93425BDCDDE900122F
:107690000291009146E634A3D3E9002351EC180B84
:1076A00000F04CFC30A3D3E9002300F047FC41EC90
:1076B000100BFFF721BB009B012B7FF41DAB10EEDD
:1076C000901A10EE102A01F1004343EC102BFFF743
:1076D00013BB9FED277BB0EE47CAF0EE67CA9FED64
:1076E000267BB0EE47DAF0EE67DA9FED257B4FF4AC
:1076F000802553EC172BFFF7EBBB45EC104B0092AA
:1077000000F014F9009A002A7FF492AB0092FFF780
:1077100026BB41EC100B009800F0C2F951EC100BA5
:10772000B5E600F00100C0F102010091002B3FF42A
:10773000C1AAFFF70DBB00F00100C0F102030093E6
:10774000FFF7B8BA1B15BBE5000000604715F73F0F
:1077500044DF5DF80BAE543E555555555555D53F54
:10776000FE822B654715F73F9C7500883CE4377E09
:107770000000004003B8E23F06D0CF43EBFD4C3E93
:10778000000000000000F83F0000F03F0000D03F84
:107790000000E03F2DE9F041634A55EC104BAA434D
:1077A00000F09F80002D10EE10CA2B4654DD2915E5
:1077B00063D0C3F31303A1F2FF37C90743F4801367
:1077C00004D45B0003EBDC734FEA4C0C4FEADC7231
:1077D000002602EB43037F104FEA4C0C4FF0160ECD
:1077E00034464FF40012A118994202DC5B1A8C183F
:1077F00016445B00BEF1010E03EBDC734FEA52024C
:107800004FEA4C0CEFD1754620204FF000420AE0C1
:1078100044D04FEADC71013801EB43034FEA4C0CD2
:107820004FEA520243D0A34202EB0E01F0DD0029E1
:1078300001EB020E0ADBA0461B1B614588BF03F16A
:10784000FF33ACEB010C15444446E2E7BEF1000FF8
:10785000F1DB04F10108EFE725F00042224338D0C4
:10786000002D4ED129464FEADC22153913464FEA46
:107870004C5C002AF7D0D60250D400205B00DD0219
:10788000044600F10100F9D51A4663460CFA00FCE3
:10789000C0F12000C340091B13438AE76145B8D8F3
:1078A000002901EB020ED1DB98460023C9E753EA19
:1078B0000C0310D168087110F30701F17F5101F535
:1078C000001148BF40F0004001EB0753024643EC73
:1078D000102BBDE8F0816A1C16BF681C01364008F9
:1078E000E9E710EE102A10EE100A2B46294600F0A8
:1078F00025FB22462B4600F06BF941EC100BBDE84E
:10790000F08110EE102A2046294600F05FF9024669
:107910000B4600F03DFC41EC100BDAE763462020FB
:107920004FF0FF34B6E700BF0000F07F51EC100BC2
:1079300010EE102A21F0004343EC102B704700BFDB
:1079400082B08DED000B019840F0004000F58010F2
:10795000C00F02B0704700BF9FED010B704700BF22
:10796000000000000000F87FF0B553EC102BC3F3CB
:107970000A5CACF2FF31132910EE100A83B01C46EA
:107980004FEAD37E3ADC002930DB424D45FA01FC58
:1079900003EA0C0515432DD003EA5C0318434FEAB4
:1079A0005C0C0CD024EA0C0C4FF48024132944FA0C
:1079B00001F10CBF4FF0004000204CEA01043649B1
:1079C00001EBCE0E2346DEE900450246294620465D
:1079D00000F0FEF8CDE90001DDE9000122462B466A
:1079E00000F0F4F841EC100B03B0F0BD23F00041BF
:1079F000114324D143EC102B03B0F0BD332908DD33
:107A0000B1F5806FF6D1194600F0E2F841EC100BA9
:107A1000F2E7ACF2134C4FF0FF3121FA0CF10A42BD
:107A2000E8D010EA51024FEA5103C8D020EA03031C
:107A30004FF0804040FA0CFC43EA0C00BFE7C3F370
:107A400013031843144A4342034302EBCE0E1B0BAD
:107A5000620C03F40023520443EA02073B46DEE9CA
:107A6000006710EE102A3046394600F0B1F8CDE933
:107A7000000132463B46DDE9000100F0A7F804F0C2
:107A8000004421F00041024641EA040343EC102B7C
:107A900003B0F0BDFFFF0F00C08F0B00000000001F
:107AA00038B553EC102BC3F30A5104469C4689BBEE
:107AB00010EE101A23F0004C5CEA010129D019469F
:107AC00000223D4B3D4D10EE100A00F037FAAC425B
:107AD00002460B4616DB8C46C1F30A513639214467
:107AE00040F2FE70814221DC002947DC11F1350FA4
:107AF00034DA4CF250318C4218DC002B26A1D1E94B
:107B0000000144DB24A3D3E9002300F017FA41EC81
:107B1000100B38BD40F2FF708142E0D110EE100A28
:107B2000194600F055F841EC100B38BD002B1CA194
:107B3000D1E9000107DB1AA3D3E9002300F0FEF925
:107B400041EC100B38BD18A1D1E9000114A3D3E911
:107B5000002300F0F3F941EC100BF3E72CF0FF4C9D
:107B60002CF4E00C36314CEA015310461946002241
:107B7000134B00F0E3F941EC100B38BD2CF0FF4C37
:107B80002CF4E00C4CEA015343EC102B38BD08A157
:107B9000D1E90001B6E700BF59F3F8C21F6EA50195
:107BA0009C7500883CE4377E9C7500883CE437FE79
:107BB00059F3F8C21F6EA58100005043B03CFFFF8F
:107BC0000000903C81F0004102E000BF83F00043E0
:107BD00030B54FEA41044FEA430594EA050F08BF68
:107BE00090EA020F1FBF54EA000C55EA020C7FEA2C
:107BF000645C7FEA655C00F0E2804FEA5454D4EBA9
:107C00005555B8BF6D420CDD2C4480EA020281EA72
:107C1000030382EA000083EA010180EA020281EAAA
:107C20000303362D88BF30BD11F0004F4FEA0131FC
:107C30004FF4801C4CEA113102D0404261EB41010B
:107C400013F0004F4FEA03334CEA133302D0524291
:107C500063EB430394EA050F00F0A780A4F101044D
:107C6000D5F1200E0DDB02FA0EFC22FA05F2801887
:107C700041F1000103FA0EF2801843FA05F359416D
:107C80000EE0A5F120050EF1200E012A03FA0EFCEC
:107C900028BF4CF0020C43FA05F3C01851EBE37116
:107CA00001F0004507D54FF0000EDCF1000C7EEB33
:107CB00000006EEB0101B1F5801F1BD3B1F5001F71
:107CC0000CD349085FEA30004FEA3C0C04F1010490
:107CD0004FEA445212F5800F80F09A80BCF1004FB9
:107CE00008BF5FEA500C50F1000041EB045141EA3B
:107CF000050130BD5FEA4C0C404141EB0101013C04
:107D000028BFB1F5801FE9D291F0000F04BF0146F2
:107D10000020B1FA81F308BF2033A3F10B03B3F1C4
:107D200020020CDA0C3208DD02F1140CC2F10C0254
:107D300001FA0CF021FA02F10CE002F11402D8BFB2
:107D4000C2F1200C01FA02F120FA0CFCDCBF41EA7E
:107D50000C019040E41AA2BF01EB0451294330BD4D
:107D60006FEA04041F3C1CDA0C340EDC04F114042A
:107D7000C4F1200220FA04F001FA02F340EA030001
:107D800021FA04F345EA030130BDC4F10C04C4F147
:107D9000200220FA02F001FA04F340EA0300294627
:107DA00030BD21FA04F0294630BD94F0000F83F471
:107DB000801306BF81F480110134013D4EE77FEA54
:107DC000645C18BF7FEA655C29D094EA050F08BFA0
:107DD00090EA020F05D054EA000C04BF1946104681
:107DE00030BD91EA030F1EBF0021002030BD5FEAC5
:107DF000545C05D14000494128BF41F0004130BDED
:107E000014F580043CBF01F5801130BD01F0004540
:107E100045F0FE4141F470014FF0000030BD7FEAB3
:107E2000645C1ABF194610467FEA655C1CBF0B46AE
:107E3000024650EA013406BF52EA033591EA030FC5
:107E400041F4002130BD00BF90F0000F04BF0021BD
:107E5000704730B54FF4806404F132044FF00005F0
:107E60004FF0000150E700BF90F0000F04BF002169
:107E7000704730B54FF4806404F1320410F00045CF
:107E800048BF40424FF000013EE700BF42004FEACA
:107E9000E2014FEA31014FEA02701FBF12F07F4347
:107EA00093F07F4F81F06051704732F07F4208BFFE
:107EB000704793F07F4F04BF41F40021704730B505
:107EC0004FF4607401F0004521F000411CE700BF51
:107ED00050EA010208BF704730B54FF000050AE0D4
:107EE00050EA010208BF704730B511F0004502D5D5
:107EF000404261EB41014FF4806404F132045FEAD7
:107F0000915C3FF4D8AE4FF003025FEADC0C18BF7F
:107F100003325FEADC0C18BF033202EBDC02C2F171
:107F2000200300FA03FC20FA02F001FA03FE40EA03
:107F30000E0021FA02F11444BDE600BF70B54FF007
:107F4000FF0C4CF4E06C1CEA11541DBF1CEA1355E5
:107F500094EA0C0F95EA0C0F00F0DEF82C4481EA4D
:107F6000030621EA4C5123EA4C5350EA013518BF6D
:107F700052EA033541F4801143F4801338D0A0FB5A
:107F800002CE4FF00005E1FB02E506F00042E0FB07
:107F900003E54FF00006E1FB03569CF0000F18BF0D
:107FA0004EF0010EA4F1FF04B6F5007F64F54074B5
:107FB00004D25FEA4E0E6D4146EB060642EAC62148
:107FC00041EA55514FEAC52040EA5E504FEACE2EB5
:107FD000B4F1FD0C88BFBCF5E06F1ED8BEF1004FB8
:107FE00008BF5FEA500E50F1000041EB045170BD34
:107FF00006F0004646EA010140EA020081EA030178
:10800000B4EB5C04C2BFD4EB0C0541EA045170BD73
:1080100041F480114FF0000E013C00F3AB8014F1ED
:10802000360FDEBF002001F0004170BDC4F1000436
:10803000203C35DA0C341BDC04F11404C4F12005B7
:1080400000FA05F320FA04F001FA05F240EA020012
:1080500001F0004221F0004110EBD37021FA04F648
:1080600042EB06015EEA430E08BF20EAD37070BD02
:10807000C4F10C04C4F1200500FA04F320FA05F061
:1080800001FA04F240EA020001F0004110EBD37063
:1080900041F100015EEA430E08BF20EAD37070BDD3
:1080A000C4F1200500FA05F24EEA020E20FA04F3AC
:1080B00001FA05F243EA020321FA04F001F000415B
:1080C00021FA04F220EA020000EBD3705EEA430ECC
:1080D00008BF20EAD37070BD94F0000F0FD101F0FB
:1080E0000046400041EB010111F4801F08BF013C34
:1080F000F7D041EA060195F0000F18BF704703F072
:108100000046520043EB030313F4801F08BF013DF8
:10811000F7D043EA0603704794EA0C0F0CEA1355B4
:1081200018BF95EA0C0F0CD050EA410618BF52EA6E
:108130004306D1D181EA030101F000414FF0000074
:1081400070BD50EA410606BF1046194652EA430682
:1081500019D094EA0C0F02D150EA013613D195EAF6
:108160000C0F05D152EA03361CBF104619460AD13E
:1081700081EA030101F0004141F0FE4141F4700148
:108180004FF0000070BD41F0FE4141F4780170BD38
:1081900070B54FF0FF0C4CF4E06C1CEA11541DBF9D
:1081A0001CEA135594EA0C0F95EA0C0F00F0A7F89F
:1081B000A4EB050481EA030E52EA03354FEA0131CC
:1081C00000F088804FEA03334FF0805545EA1313DF
:1081D00043EA12634FEA022245EA111545EA1065A7
:1081E0004FEA00260EF000419D4208BF964244F13E
:1081F000FD0404F5407402D25B084FEA3202B61A5D
:1082000065EB03055B084FEA32024FF480104FF430
:10821000002CB6EB020E75EB030E22BFB61A7546A4
:1082200040EA0C005B084FEA3202B6EB020E75EB37
:10823000030E22BFB61A754640EA5C005B084FEA9F
:108240003202B6EB020E75EB030E22BFB61A75466C
:1082500040EA9C005B084FEA3202B6EB020E75EB77
:10826000030E22BFB61A754640EADC0055EA060E38
:1082700018D04FEA051545EA16754FEA06164FEA7B
:10828000C30343EA52734FEAC2025FEA1C1CC0D127
:1082900011F4801F0BD141EA00014FF000004FF0B4
:1082A000004CB6E711F4801F04BF01430020B4F175
:1082B000FD0C88BFBCF5E06F3FF6AFAEB5EB030C2D
:1082C00004BFB6EB020C5FEA500C50F1000041EB2A
:1082D000045170BD0EF0004E4EEA113114EB5C04F7
:1082E000C2BFD4EB0C0541EA045170BD41F48011CA
:1082F0004FF0000E013C90E645EA060E8DE60CEAD2
:10830000135594EA0C0F08BF95EA0C0F3FF43BAFEE
:1083100094EA0C0F0AD150EA01347FF434AF95EAA5
:108320000C0F7FF425AF104619462CE795EA0C0F89
:1083300006D152EA03353FF4FDAE1046194622E756
:1083400050EA410618BF52EA43067FF4C5AE50EA30
:1083500041047FF40DAF52EA43057FF4EBAE12E720
:108360004FF0FF3C06E000BF4FF0010C02E000BF01
:108370004FF0010C4DF804CD4FEA410C7FEA6C5CE4
:108380004FEA430C18BF7FEA6C5C1BD001B050EA87
:10839000410C0CBF52EA430C91EA030F02BF90EA72
:1083A000020F0020704710F1000F91EA030F58BF31
:1083B000994208BF90422CBFD8176FEAE37040F093
:1083C000010070474FEA410C7FEA6C5C02D150EA31
:1083D000013C07D14FEA430C7FEA6C5CD6D152EAEC
:1083E000033CD3D05DF8040B704700BF84461046B1
:1083F00062468C461946634600E000BF01B5FFF7B0
:10840000B7FF002848BF10F1000F01BD4DF808ED7F
:10841000FFF7F4FF0CBF012000205DF808FB00BF50
:108420004DF808EDFFF7EAFF34BF012000205DF8AA
:1084300008FB00BF4DF808EDFFF7E0FF94BF0120F7
:1084400000205DF808FB00BF4DF808EDFFF7CEFFF8
:1084500094BF012000205DF808FB00BF4DF808ED37
:10846000FFF7C4FF34BF012000205DF808FB00BF08
:108470004FEA410C7FEA6C5C02D150EA013C0AD120
:108480004FEA430C7FEA6C5C02D152EA033C02D112
:108490004FF0000070474FF0010070474FEA410273
:1084A000B2F1E04324BFB3F5001CDCF1FE5C0DD952
:1084B00001F0004C4FEAC0024CEA5070B2F1004F9C
:1084C00040EB830008BF20F00100704711F0804F9F
:1084D00021D113F13872BCBF01F00040704741F464
:1084E00080114FEA5252C2F11802C2F1200C10FA68
:1084F0000CF320FA02F018BF40F001004FEAC1234C
:108500004FEAD32303FA0CFC40EA0C0023FA02F3EF
:108510004FEA4303CCE77FEA625307D150EA0133C5
:108520001EBF4FF0FE4040F44000704701F0004095
:1085300040F0FE4040F40000704700BF80F0004073
:1085400002E000BF81F0004142001FBF5FEA41032B
:1085500092EA030F7FEA226C7FEA236C6AD04FEA2B
:108560001262D2EB1363C1BFD21841404840414070
:10857000B8BF5B42192B88BF704710F0004F40F422
:10858000000020F07F4018BF404211F0004F41F43E
:10859000000121F07F4118BF494292EA030F3FD00A
:1085A000A2F1010241FA03FC10EB0C00C3F120031D
:1085B00001FA03F100F0004302D5494260EB4000AC
:1085C000B0F5000F13D3B0F1807F06D340084FEA17
:1085D000310102F10102FE2A51D2B1F1004F40EB0C
:1085E000C25008BF20F0010040EA03007047490074
:1085F00040EB0000013A28BFB0F5000FEDD2B0FA11
:1086000080FCACF1080CB2EB0C0200FA0CF0AABF33
:1086100000EBC25052421843BCBFD04018437047D1
:1086200092F0000F81F4000106BF80F400000132D7
:10863000013BB5E74FEA41037FEA226C18BF7FEAAE
:10864000236C21D092EA030F04D092F0000F08BFF0
:108650000846704790EA010F1CBF0020704712F0D7
:108660007F4F04D1400028BF40F00040704712F116
:1086700000723CBF00F50000704700F0004343F07B
:10868000FE4040F4000070477FEA226216BF0846B1
:108690007FEA23630146420206BF5FEA412390EA74
:1086A000010F40F4800070474FF0000304E000BF6A
:1086B00010F0004348BF40425FEA000C08BF70471B
:1086C00043F0964301464FF000001CE050EA0102DF
:1086D00008BF70474FF000030AE000BF50EA0102F4
:1086E00008BF704711F0004302D5404261EB4101E1
:1086F0005FEA010C02BF84460146002043F0B64306
:1087000008BFA3F18053A3F50003BCFA8CF2083A2A
:10871000A3EBC25310DB01FA02FC634400FA02FC33
:10872000C2F12002BCF1004F20FA02F243EB02003A
:1087300008BF20F00100704702F1200201FA02FC9C
:10874000C2F1200250EA4C0021FA02F243EB02008F
:1087500008BF20EADC7070477BB972B90029BEBF40
:1087600000204FF0004106E008BF00281CBF6FF05A
:1087700000414FF0FF3000F0A7B9ADF1080C6DE9F2
:1087800004CE002909DB002B1ADB00F035F8DDF8F8
:1087900004E0DDE9022304B07047404261EB41018F
:1087A000002B1BDB00F028F8DDF804E0DDE90223F4
:1087B00004B0404261EB4101524263EB4303704716
:1087C000524263EB430300F017F8DDF804E0DDE903
:1087D000022304B0404261EB41017047524263EB17
:1087E000430300F009F8DDF804E0DDE9022304B0FA
:1087F000524263EB430370472DE9F047089D04465E
:108800008E46002B4DD18A42944669D9B2FA82F243
:1088100052B101FA02F3C2F1200120FA01F10CFA7F
:1088200002FC41EA030E94404FEA1C48210CBEFBB7
:10883000F8F61FFA8CF708FB16E341EA034306FB40
:1088400007F199420AD91CEB030306F1FF3080F0CF
:108850001F81994240F21C81023E63445B1AA4B21C
:10886000B3FBF8F008FB103344EA034400FB07F7BE
:10887000A7420AD91CEB040400F1FF3380F00A81FF
:10888000A74240F207816444023840EA0640E41BF4
:1088900000261DB1D4400023C5E900433146BDE8A0
:1088A000F0878B4209D9002D00F0EF800026C5E942
:1088B000000130463146BDE8F087B3FA83F6002E5A
:1088C0004AD18B4202D3824200F2F980841A61EBD2
:1088D000030301209E46002DE0D0C5E9004EDDE7F0
:1088E00002B9FFDEB2FA82F2002A40F09280A1EBD8
:1088F0000C014FEA1C471FFA8CFE0126200CB1FB2D
:10890000F7F307FB131140EA01410EFB03F0884225
:1089100008D91CEB010103F1FF3802D2884200F2B2
:10892000CB804346091AA4B2B1FBF7F007FB101144
:1089300044EA01440EFB00FEA64508D91CEB0404E2
:1089400000F1FF3102D2A64500F2BB800846A4EB3D
:108950000E0440EA03409CE7C6F12007B34022FA28
:1089600007FC4CEA030C20FA07F401FA06F31C4357
:10897000F9404FEA1C4900FA06F3B1FBF9F8200C64
:108980001FFA8CFE09FB181140EA014108FB0EF0AA
:10899000884202FA06F20BD91CEB010108F1FF3AFA
:1089A00080F08880884240F28580A8F10208614406
:1089B000091AA4B2B1FBF9F009FB101144EA014114
:1089C00000FB0EFE8E4508D91CEB010100F1FF34BF
:1089D0006CD28E456AD90238614440EA0840A0FB57
:1089E0000294A1EB0E01A142C846A64656D353D02D
:1089F0005DB1B3EB080261EB0E0101FA07F722FA51
:108A000006F3F1401F43C5E9007100263146BDE879
:108A1000F087C2F12003D8400CFA02FC21FA03F3DC
:108A2000914001434FEA1C471FFA8CFEB3FBF7F05D
:108A300007FB10360B0C43EA064300FB0EF69E4282
:108A400004FA02F408D91CEB030300F1FF382FD21B
:108A50009E422DD9023863449B1B89B2B3FBF7F6C3
:108A600007FB163341EA034106FB0EF38B4208D99C
:108A70001CEB010106F1FF3816D28B4214D9023EDD
:108A80006144C91A46EA004638E72E46284605E7FB
:108A90000646E3E61846F8E64B45A9D2B9EB0208CC
:108AA00064EB0C0E0138A3E74646EAE7204694E75C
:108AB0004046D1E7D0467BE7023B614432E730468F
:108AC00009E76444023842E7704700BF00230146CB
:108AD0001A46184600F06AB80A44914200F1FF3382
:108AE00000D1704710B511F8014B03F8014F9142C6
:108AF000F9D110BD02440346934200D1704703F8F8
:108B0000011BF9E738B5104B1D68AB6B0446B3B9D0
:108B10001820FCF70BFE0246A86320B90B4B0C484B
:108B20004221FCF73BFE0B490B4BC0E900130B4BFA
:108B300083600B23838100210120C2E90401AB6B18
:108B400000221C615A6138BDA0E50320D08F0B00C4
:108B5000E78F0B000E33CDAB34126DE6ECDE050073
:108B6000024B0146186800F003B800BFA0E50320DF
:108B700037B5044608460D4600F00FF8421C114672
:108B800020460192FCF7FAFD044618B1019A2946E5
:108B9000FFF7A2FF204603B030BD034613F8012BB8
:108BA000002AFBD1181A0138704700002DE9F8435C
:108BB000DFF8B8800646D8F800001F460D469146FB
:108BC00000F056F8254B1C6834B9254C1C60254B29
:108BD00013B11B68C4F8883063681F2B07DDD8F811
:108BE000000000F047F84FF0FF30BDE8F8834EB3C7
:108BF000D4F8880088B91C4B23B9D8F8000000F0DD
:108C000038F8F0E74FF48470FCF790FD0028F4D0BA
:108C10000023C0E94033C4F88800636840F823901B
:108C200001229A4000EB8301D0F800311343C0F8D1
:108C30000031022EC1F8807002BFD0F80431134316
:108C4000C0F804316368D8F800005A1C023362602F
:108C500044F8235000F00EF80020C6E7E8E70320B0
:108C60005CE70320000000002D570B0004E6032002
:108C7000704770477047000021400B005D400B00BB
:108C800085400B0089400B000000000044616E67C6
:108C900065726F7573204C6576656C00486967680E
:108CA00020506F6C7574696F6E004C6F7720506F39
:108CB0006C7574696F6E00467265736820416972E5
:108CC0000052656164696E6720556E7375636365F4
:108CD000737366756C0057656174686572205374B0
:108CE0006174696F6E204F6E6C696E65203A290061
:108CF00025640054656D70657261747572653A2003
:108D00000074656D700068756D69646974790070D0
:108D10007265737375726500616C746974756465EE
:108D2000006169725175616C006C706F5F76616C87
:108D300000256C7500647573745F726174696F00EF
:108D4000647573745F636F6E63006C696768740049
:108D5000736F756E640077656174686572537461D2
:108D600074696F6E44617461004C6F6164696E6711
:108D7000000000000000000000000000B5400B00F3
:108D8000C9400B0064656661756C7420004D5342E8
:108D9000004C5342003C53504953657474696E67EC
:108DA000732064656661756C743E003C5350495392
:108DB000657474696E67732025732575202573208B
:108DC0004D4F444525753E000000000000000000A6
:108DD0000D460B00E1450B00E3450B0000000000D1
:108DE0000200000001000000030000005C75253057
:108DF000345800252E2A6C6600256C6600000000A1
:108E0000000000000000000021500B003D500B004E
:108E1000000000000000000051500B0065500B00E6
:108E2000000000000000000031580B0037580B0014
:108E300075580B0045580B0033580B00000000001C
:108E400000000000BF5D0B00B55D0B00AB5D0B00CB
:108E5000A15D0B00955D0B00895D0B002D600B0083
:108E600035600B007D5D0B00755D0B006B5D0B00CD
:108E7000615D0B0065600B00000000000000000059
:108E8000DD5D0B00275E0B00FF5D0B00DF5D0B005F
:108E9000075E0B000F5E0B00175E0B001F5E0B00E2
:108EA0000000000000000000FB5E0B00EB5E0B000A
:108EB000ED5E0B006170700000000000000000001B
:108EC000ED5F0B00F75F0B0001600B000B600B0008
:108ED00015600B0021600B002D600B0035600B004E
:108EE0003D600B0049600B0051600B005B600B00A4
:108EF00065600B00000810182028303825592D25F2
:108F00006D2D25645425483A254D3A2553257A0080
:108F100061736374696D650000000000000000006B
:108F200025650B0091650B0069650B0051610B0015
:108F300039650B0055650B0047650B0063650B0039
:108F400027650B002B650B000000000000000000EF
:108F5000CF650B0037660B000D660B0051610B00EF
:108F6000FF650B00D1650B00E1650B0031660B005E
:108F7000F1650B00C9650B00000000000000000057
:108F80002F670B0025670B001B670B00D1660B00DA
:108F90000F670B0003670B002D600B0035600B00A3
:108FA000F7660B00EF660B00E5660B00DB660B0057
:108FB00065600B00000000000000000000000000E1
:108FC000000000000000304300000000000030C33B
:108FD0005245454E54206D616C6C6F632073756310
:108FE000636565646564002F746D702F6A656E6BD0
:108FF000696E732D4743432D31302D706970656C58
:10900000696E652D34385F32303230313132345F41
:10901000313630363138303633392F7372632F6E34
:1090200065776C69622F6E65776C69622F6C696217
:10903000632F7374646C69622F72616E642E6300B7
:10904000A1450B0021580B00C95D0B00DD5F0B0033
:109050003D610B0065620B00ED640B0011650B00B8
:1090600039670B0000000000000000000000000055
:10907000040000001400000003000000474E5500EB
:1090800048189D82FBBC6E77A56CBBD9E76BE92DB8
:049090008AA67A3200
:0890940064F7FF7F01000000FA
:04909C0000000000D0
:1090A000130000000F000000108F0B00FF000000F5
:1090B000A4E5032000000000000000000000000004
:1090C00000000000000000000000000000000000A0
:1090D0000000000000000000000000000000000090
:1090E0000000000000000000000000000000000080
:1090F0000000000000000000000000000000000070
:10910000000000000000000000000000000000005F
:0891100000000000ECE7032061
:10911800FFFFFFFF00000102030405060708090A14
:109128000B0C0D0E0F101112131415161718191A0F
:089138001B1C1D1E1F20280056
:049140007856341217
:04000003B0004020E9
:00000001FF
