:02000002B0004C
:1040000000400B00B4A60B00000006000C000502E7
:0840100004010410000000008F
:04401800E49F0B0016
:1040200009480A49884208B505D0094A824202D0A7
:10403000121A05F0F5FE0748074A0021121A05F08A
:10404000FDFE014808BD00BF0CE5032000A60B00E3
:1040500098E5032098E50320EDE7032070B5074EAF
:10406000074C03F06DFCA41BA4080025AC4200D152
:1040700070BD56F8043B98470135F7E7A8A50B003B
:10408000CCA50B0000F0A0B908B500F01BFABDE804
:10409000084003F00DBC02F051B802F04FB802F036
:1040A00055B802F053B80078B0FA80F04009704774
:1040B000012303707047704710B5034B036004463B
:1040C00001F056F8204610BD58A10B0010B504466B
:1040D000FFF7F2FF20464FF49871FFF7E2FF20460A
:1040E00010BD000013B5064B1B788DF80030002280
:1040F0003C23044602F0D0F9204602B010BD00BFB8
:1041000098E5032008B5114800F0DEFD104B0F487C
:10411000BDEEC00A83ED000A00F006FE0D4B0B4811
:10412000BDEEC00A83ED000A00F048FE0A4B0748C6
:10413000BDEEC00A83ED000A9FED080A00F010FFF3
:10414000074BBDEEC00A83ED000A08BDCCE5032095
:10415000B4E603208CE60320A0E6032000507D4453
:10416000ACE5032008B5104800F0BCFF0F4B1B68FE
:10417000834205D10E490F48BDE8084002F0C1BE98
:104180000D4B1B68834201D10C49F4E70C4B1B68B3
:10419000834201D10B49EEE70B4B1B6883420CBFF6
:1041A0000A490B49E7E700BFB0E50320B8A10B00BF
:1041B000F89F0B009CE50320C0A10B0008A00B009A
:1041C000BCA10B0016A00B00C4A10B0023A00B0088
:1041D0002DA00B0000000000F8B5314B314A1968E2
:1041E000002945D112681A6018682F4C04F0D0FFDE
:1041F00021A3D3E9002305F06FF99FED211B41ECCA
:10420000100BC4E9000103F0FBFD1FA3D3E9002359
:1042100051EC100B05F036F8D4E900670D46044662
:1042200032463B463046394605F02CF818A3D3E910
:10423000002305F027F802460B462046294604F0E5
:1042400069FE1A4B04460D4600223046394605F0F9
:1042500019F802460B462046294604F05DFE0EA3DF
:10426000D3E9002304F058FE114BC3E90001F8BD67
:104270001160B9E7AFF3008000000000804F1241E9
:1042800000000000000008409A9999999999F13F1F
:104290006666666666660E40D7A3703D0AD7E33F42
:1042A0009CE6032094E60320A8E60320004080401B
:1042B00080E6032008B5034B188803F0EEFB024BA1
:1042C000186008BD0CE5032098E6032008B5034BF1
:1042D000188803F0E2FB024B186008BD24E50320B8
:1042E000B0E6032002460249024801F026BB00BFA7
:1042F00042A00B0010E6032038B5046805467CB1E7
:104300006368013B63605BB9236820469B689847FC
:10431000A368013BA3601BB923682046DB6898476C
:10432000284638BD00B58DB0214908A8FFF7DAFE50
:1043300009A8FFF7E1FF1F4B1F48196801F072FA47
:1043400048B908A81D49FFF7CDFE09A8FFF7D4FF1B
:104350000DB05DF804FB1A4904A802F0A4FD0A227E
:10436000012108A802F0DFFD08A904A802F005FE5B
:104370000146684602F0BAFD08A802F049FD04A80B
:1043800002F046FD009908A8FFF7ACFE09A8FFF768
:10439000B3FF0C4908A8FFF7A5FE09A8FFF7ACFF7B
:1043A0004FF4FA6001F012FF684602F031FDCFE7EA
:1043B0004CA00B0070E6032010E6032067A00B0062
:1043C00071A00B008AA00B0010B586B01D491E4CD1
:1043D00002A8FFF787FE03A8FFF78EFF1B4800F037
:1043E00050FE03F093F94FF4165103F083F90021C6
:1043F000112003F015FB01F03DFC154B1860154B27
:104400000021188803F00CFB134B0021188803F0DF
:1044100007FB124B2046196801F004FA204601F010
:1044200011F90A22014602A802F07DFD02996846B0
:10443000FFF758FE01A8FFF75FFF02A802F0E8FCB3
:1044400006B010BDBEA00B0010E60320CCE5032093
:1044500090E603200CE5032024E5032070E603200A
:1044600037B504461546019100F08EFF01990122EF
:10447000204600F0F7FE20463A2100F0A7FE04494E
:104480002A46204603B0BDE8304000F0DEBE00BF43
:1044900004A30B001FB504468DED000B039100F043
:1044A00073FF03990122204600F0DCFE20463A21EA
:1044B00000F08CFE9DED000B204604B0BDE81040DE
:1044C00000F086BF30B5D3B0FFF71CFEFFF74AFE01
:1044D000FFF7F0FEFFF7FAFE0021112003F0F4FAD7
:1044E000514C524B524D186023681844206001F023
:1044F000C1FB2B68C01A47F23053984206D9FFF728
:104500006BFE0023236001F0B5FB28604FF480723E
:1045100012A906A800F048FE464B06937D227B2197
:1045200006A800F03CFF444B44491A6806A8FFF770
:1045300097FF434B43491A6806A8FFF791FF424B88
:1045400042491A6806A8FFF78BFF414B41491A6898
:1045500006A8FFF785FF404902A802F0C7FC06A89D
:1045600000F012FF01223D4906A800F07BFE3A212F
:1045700006A800F02BFE0299012206A800F072FEA8
:1045800002A802F045FC06A8246800F0FDFE012206
:10459000334906A800F066FE3A2106A800F016FE90
:1045A0002246304906A800F050FE2F4B2F4993EDCC
:1045B000000B06A8FFF76EFF2D4B2E4993ED000B65
:1045C00006A8FFF767FF2C4B2C491A6806A8FFF7CF
:1045D00047FF2B4B2B491A6806A8FFF741FF06A897
:1045E00000F002FE284801F02DF808B9FFF79AFE06
:1045F0000798FFF777FE254B079A1B7824498DF81B
:10460000003002A83C2301F047FF03A8FFF774FE27
:104610001D4801F017F810B11B4801F0EAF906A88F
:10462000FFF74AFD53B030BD9CE6032088E6032027
:1046300090E6032058A10B00B4E60320D8A00B009D
:104640008CE60320DDA00B00A0E60320E6A00B0013
:10465000ACE50320EFA00B009CE50320F8A00B00C5
:1046600000A10B0008A10B00A8E603200CA10B0081
:1046700080E6032017A10B0098E6032021A10B0080
:10468000B0E6032027A10B0010E6032099E50320E4
:104690002DA10B000F4B13B500241C700E4B0F48BF
:1046A00001221A7000F06CF802210D4800F0FCFCA9
:1046B0000C490D4802F0F7FB0C490D4802F0F3FBE2
:1046C0000C4B0D49009440F25B720C4800F0DEFE8A
:1046D00002B010BD98E5032099E50320CCE5032046
:1046E000B0E5032040A10B009CE5032048A10B008E
:1046F00070E60320B7400B0010E5032010E603200E
:10470000704710B510210446FFF7CBFC204610BDC2
:104710000EB403B503AB002153F8042B019302F050
:104720008EFA02B05DF804EB03B0704773B504462F
:1047300008462279A36832B1A3B90B4902B0BDE89B
:10474000704002F04BBA094A267B094D0949647B47
:10475000012E18BF2946CDE900140749FFF7D8FFFD
:1047600002B070BD054AEFE771A10B0089A00B00F4
:104770006DA10B0069A10B0087A10B0060A10B00CC
:104780004FF0FF330361704713B50B4C2178BFF333
:104790005B8F11F001010BD120460191FFF783FCE3
:1047A000019928B1054802F087FA2046FFF780FCFE
:1047B000024802B010BD00BFB8E60320BCE60320EB
:1047C00008B5FFF7E1FFBDE8084002F093BA07B56E
:1047D0000190FFF7D9FF019903B05DF804EB02F0F7
:1047E000A3BA2DE9F04190F91330013305460F4685
:1047F00006D1FFF7C9FF3946BDE8F04102F002BB20
:10480000002407264FF0010895F91300002180B21B
:1048100003F017F995F9110008FA06F1394080B252
:1048200003F00FF995F91300012180B203F009F9A3
:1048300095F91200640080B2E4B203F01BF908B1EC
:1048400044F00104013EDFD22046BDE8F0810000C3
:104850007FB590F91030013304460E46154613D14A
:104860000179006802F03EF82068036831469B68D1
:1048700098472068036829469B689847206804B0D9
:10488000BDE8704002F036B890F9133001330CD116
:10489000164B009300238DF80430154B02936846A5
:1048A0000123ADF80C30FFF792FF94F910000021BE
:1048B00080B203F0C6F806F07F012046FFF791FFB3
:1048C00029462046FFF78DFF94F91000012180B2A0
:1048D00003F0B7F894F91330013304D104B0BDE804
:1048E0007040FFF76DBF04B070BD00BFACA10B00FE
:1048F00020A10700F8B5DB0002F0070203F038033F
:10490000134343EA81139DF8186080F83C3090F817
:1049100040309DF81C509DF8207066F3471380F8D6
:104920004030ED0090F8383007F0070705F0380503
:1049300023F03F033D4304461D4380F8385006F002
:104940000702F221FFF784FF94F83820C2F3C20374
:1049500002F007019B0043EA411343EAD2122046CA
:10496000F521FFF775FF94F83C20C2F3C20302F073
:1049700007019B0043EA411343EA92122046F421C7
:10498000BDE8F840FFF764BF30B590F9103001334F
:1049900085B004460D4618D10179006801F0A2FFE8
:1049A0002068036829469B689847206801F0A2FFA9
:1049B00021792068012201F092FF206803685B6979
:1049C0009847C5B2284605B030BD90F91330013381
:1049D0000CD1154B009300238DF80430134B029338
:1049E00068460123ADF80C30FFF7F1FE94F9100092
:1049F000002180B203F025F845F080012046FFF742
:104A0000F0FE00212046FFF7ECFE054694F9100069
:104A1000012180B203F015F894F913300133D1D19C
:104A2000FFF7CEFECEE700BFACA10B0020A1070030
:104A300008B5F321FFF7A8FF00F0010008BD000052
:104A400030B590F91030013385B004460D461FD1C2
:104A50000179006801F046FF2068036829469B68D9
:104A60009847206801F046FF21792068022201F072
:104A700036FF206803685B6998470546206803682D
:104A80005B69984740EA052085B2284605B030BDED
:104A900090F9133001330CD1184B009300238DF89B
:104AA0000430174B029368460123ADF80C30FFF732
:104AB0008EFE94F91000002180B202F0C2FF45F092
:104AC00080012046FFF78DFE00212046FFF789FE7A
:104AD000002105462046FFF784FE40EA052085B206
:104AE00094F91000012180B202F0ABFF94F9133069
:104AF0000133CAD1FFF764FEC7E700BFACA10B00CA
:104B000020A1070008B5FFF79BFF40BA80B208BD9F
:104B100038B588210446FFF7F5FF8A21A082204698
:104B2000FFF7F0FF8C21E0822046FFF7EBFF8E219C
:104B300020832046FFF7E6FF902160832046FFF7A1
:104B4000E1FF9221A0832046FFF7DCFF9421E08360
:104B50002046FFF7D7FF962120842046FFF7D2FF9B
:104B6000982160842046FFF7CDFF9A21A08420463B
:104B7000FFF7C8FF9C21E0842046FFF7C3FF9E217A
:104B800020852046FFF7BEFFA12160852046FFF764
:104B9000FBFEE12184F82C002046FFF7B3FFE32160
:104BA000E0852046FFF7F0FEE42184F8300020463F
:104BB000FFF7EAFEE52105462046FFF7E5FE00F097
:104BC0000F0343EA05106086E6212046FFF7DCFE6E
:104BD000E52105462046FFF7D7FEC0F3071343EA59
:104BE0000510A086E7212046FFF7CEFE84F83600A8
:104BF00038BD000030B590F91030013385B004465F
:104C00000D4623D10179006801F06CFE206803682D
:104C100029469B689847206801F06CFE217920683E
:104C2000032201F05CFE206803685B699847050277
:104C3000206803685B699847284305022068036879
:104C40005B6998470543284605B030BD90F913309D
:104C500001330CD11A4B009300238DF80430194B0B
:104C6000029368460123ADF80C30FFF7B0FD94F9CC
:104C70001000002180B202F0E4FE45F080012046E1
:104C8000FFF7AFFD00212046FFF7ABFD0021050235
:104C90002046FFF7A6FD2843050200212046FFF726
:104CA000A0FD054394F91000012180B202F0C9FE75
:104CB00094F913300133C6D1FFF782FDC3E700BF7B
:104CC000ACA10B0020A1070010B5FA210446FFF7A4
:104CD00091FFB0F5000F1FD0A18A9FED117A4B0014
:104CE000C1EB2022C3EBE011B4F91630594302FBAB
:104CF00002F3B4F918201B1353439B1303EBE12376
:104D0000E36003EB830380331B1207EE903AF8EE67
:104D1000E77A87EE870A10BD9FED020AFBE700BF26
:104D20000000C8420000C07F38B50446FFF7CCFF42
:104D3000FD212046FFF784FEB0F5004F38D0E16832
:104D4000B4F93420A1F59635B4F932100905C1EB58
:104D5000803305FB123303F58043DA1394F83030C7
:104D600094F936106B43DB126943891203F5004353
:104D70004B439B12B4F92E1003F500134B4303F57C
:104D800000539B135343DA1394F82C105243D2115F
:104D90004A43A3EB221323EAE373B3F1C85FA8BF2E
:104DA0004FF0C8531B1300EE103ABAEECB0A38BDD1
:104DB0009FED010AFBE700BF0000C07F2DE9F8432B
:104DC0000546FFF781FFF7212846FFF713FFB0F5EF
:104DD000000F00F0B680E968B5F91C304FEAE17EBB
:104DE000B1F5FA314EF1FF3EDC1703FB0EF201FB89
:104DF0000422A3FB013422441203A1FB01781C030B
:104E000001FB0EF642EA1352B5F91E3008EB4608D4
:104E10004FEAE37C03FB08F607FB0C66A3FB073CA9
:104E200066441B0A43EA06631B1942EB26226E8B7B
:104E300002F50042A3FB063406FB0244E3176210AE
:104E400053EA64044FF0000C7ED0B5F9244004FB13
:104E500008F64FEAE47907FB0966A4FB07473E44DE
:104E6000B5F922704FEAE77807FB0EFE01FB08EE6A
:104E7000A7FB01717144490441EAD73100117F0455
:104E80003F19C0F5801446EB010604F00040B5F967
:104E900020101CEB070740EA5400E407E41B06EB74
:104EA000C10640F6354160EB0606A4FB010401FB98
:104EB000064104F0F5FDB5F92A20B5F928604FEA5E
:104EC000613C430B43EAC14302FB0CF7D41703FBDD
:104ED0000477A2FB03243C4402FB0CF703FB04779A
:104EE000A2FB03231F44530E43EAC7131B184FEAC8
:104EF000E67206FB01F4864641EB676702FB004160
:104F0000A6FB0E06B5F926403144C00C40EA4130FC
:104F100018184FEAE47547EBE141000A2D0140EA19
:104F2000016045EA14752401201845EB212104F0A5
:104F300079FD9FED070A07EE900A27EE800ABDE88B
:104F4000F8839FED040AFAE79FED030AF7E700BF35
:104F50000000803B0000C07F000000000000000057
:104F600008B52DED028BB0EE408AFFF727FF9FEDCD
:104F7000167AC0EE077AC7EE887A17EE900A04F028
:104F800029F99FED0D1B41EC100B02F039FF0F4981
:104F900053EC102B002003F0BDFF09A3D3E900233D
:104FA00004F070F904F01EFCBDEC028B00EE100A58
:104FB00008BD00BFAFF30080EBE2361AC05BC83F0C
:104FC0000000000040A5E5400000C8420000F03F9E
:104FD00030B5044690F91000421C85B019D1206804
:104FE00001F04EFCD0212046FFF7CEFC6028A060E7
:104FF00045D12046B622E021FFF72AFC4FF49670F7
:1050000001F0E4F82046FFF713FD054628B36420BD
:10501000F6E7012180B202F014FD94F9100001219D
:1050200080B202F0FDFC94F91300431C04D1FFF799
:10503000ABFB01F04BFED5E7012180B202F0F0FCA2
:1050400094F91100012180B202F0EAFC94F91200F7
:10505000002180B202F0E4FCC4E72046FFF758FDCF
:10506000052300931A4603212046CDE90155FFF799
:1050700041FC642001F0AAF8012005B030BD0020F9
:10508000FBE7772310B50371044602F03BFD206077
:105090002046FFF79DFF30B9762323712046BDE8F7
:1050A0001040FFF795BF10BD0022C0E90422016047
:1050B0007047000010B5044600F0DCFDA369C01A7B
:1050C000074B98420AD9D4E9043293FBF2F3E36028
:1050D00000F0D0FD0023C4E90433A06110BD00BF7F
:1050E00020A1070010B5836843600446008802F0E1
:1050F000D4FC2369A06018446369206101336361B3
:105100002046FFF7D7FFD4E90112511AB1F5C87F45
:1051100010DCB2F52F7F0DDCE368D31A962B0BDC85
:10512000C82902DDB2F52F7F08D1322BCCBF022077
:10513000032010BD0020FCE70120FAE70220F8E779
:1051400010B5054B0360037C04461BB9406808B1E9
:1051500000F0FCFF204610BDE4A10B0010B5044692
:10516000FFF7EEFF20461421FEF79BFF204610BDFF
:1051700010B5034B03600446FFF7E2FF204610BD65
:10518000F4A10B0010B50446FFF7F2FF20463021D2
:10519000FEF787FF204610BD00230122C360436154
:1051A000028380F82A307047C0E9011208B5002256
:1051B000C26001220274044A02604FF0FF32C262F0
:1051C000FFF7EAFF08BD00BFF4A10B00D0E90223FE
:1051D00010B593423FBF42685C1CC460D15424BFE9
:1051E000012380F82A3010BD10B54369044643B14D
:1051F00000EB4303597E09B1FFF7E8FF6369013B08
:105200006361D4E90210636888424FF000022ABF4C
:105210005B181A5403F8012C10BD70B50446D0E990
:10522000025066682D1A134630440A46294600F09B
:105230009DFF85422DBFE368A368E360C01836BFB9
:105240000123E06084F82A3070BD0EB403B503AAD0
:1052500052F8041B0192FFF7E0FF02B05DF804EB87
:1052600003B070472DE9F84304460E46174612B1C5
:105270002221FFF7ABFFDFF80C810025715D06EB03
:105280000509002974D0D4E902329A4270D20B0683
:1052900034D501F0F003E02B05F101091DD116F81A
:1052A000092002F0C003802B39D105F1020916F85C
:1052B000093003F0C000802831D103F03F03920190
:1052C00043EA013302F47C621A4392B2414620461B
:1052D000FFF7BBFF4D460135D0E701F0E003C02BDF
:1052E0001DD116F8093003F0C002802A17D18901B8
:1052F00001F4F86203F03F031A43E7E70D290AD8E7
:1053000007290CD9A1F10803052B08D8DFE803F021
:1053100009231707111D222923D05C2921D02046FB
:1053200004E05C212046FFF751FF6221FFF74EFFAA
:10533000D1E75C212046FFF749FF6621F6E75C21B3
:105340002046FFF743FF6E21F0E75C212046FFF780
:105350003DFF7221EAE75C212046FFF737FF742109
:10536000E4E75C212046FFF731FF99F80010DDE704
:105370002FB120462221BDE8F843FFF727BFBDE843
:10538000F88300BFC8A10B00426900EB42031A7EFC
:1053900012B100221A7670472C21FFF717BF73B5A0
:1053A000436901910133082B16460FD8FFF7ECFF34
:1053B0004369019900EB43045A1C01254261A5761B
:1053C000E676FFF703FF284602B070BD0020FBE73A
:1053D00007B5C16A002953EC102B08DB0A468DED96
:1053E000000B0649FFF731FF03B05DF804FB0449E9
:1053F00003B05DF804EBFFF728BF00BFCFA10B009F
:10540000D5A10B0091F85C3010B50446016013B1D2
:10541000886D00F00FFC204610BD10B5036893F8AE
:105420005C20044612B1986D00F00CFC204610BDC3
:10543000F8B51F469DF8243004460D4616462BB19C
:10544000012380F85C30583000F0ECFB089B2363AC
:105450000023636306B1A66425B1294604F1380030
:1054600001F04FFD069B2365079BE069A4F84C7093
:10547000FF2BB8BFFF23A4F8543008B1FEF70FFE8E
:10548000B4F85400FEF709FEE061F8BD2DE9FF41D4
:1054900004460025174698460E4602F069F80D4965
:1054A000E56104F1380001F0FEFC9DF82830A564A8
:1054B000CDE90283FF220F23CDE90032204684F894
:1054C0005C503B462A463146FFF7B2FF204604B007
:1054D000BDE8F08189A00B0010B50446204601F01C
:1054E000A3FF0028FAD0204601F088FDC0B210BD0D
:1054F0002DE9F04705468846FFF7EEFFEB69187087
:10550000EB6993F800A04FF001090AF0F00A0027B8
:105510004C462846FFF7E0FF2646EB69985500F019
:105520007F0313FB09F31F4401340306A4B2BFB287
:105530004FEAC919EDD4631EBAF1300F88F8003074
:105540001ED12846FFF7C8FFEB6918552846FFF71C
:10555000C3FFF41C0236B6B2EB69A4B2985502261A
:10556000B6B2BE420ED22846FFF7B6FFB5F85430A9
:10557000A34284BFEB6918550134A4B20136EFE7AA
:105580000026EDE7B5F85430A3422CBF204600209A
:10559000BDE8F0872DE9F34115461E461A46074639
:1055A0000023964602A802F07F0CBEF17F0F03F1A4
:1055B0000104034488BF4CF0800CBEF17F0F4FEA1A
:1055C000D212E4B203F804CC1ED8C4F10403C4F12F
:1055D0000500E954224601A9284405EB030804F01C
:1055E0001FFC721C22444146384601F0F2FC05467D
:1055F00000F040FB621C78623244A8B2131A584291
:10560000584102B0BDE8F0812346CAE70233F0B545
:10561000054698B20023CE5C9CB256B1B5F854C092
:10562000844503F1010704D9441C16543B46A0B23B
:10563000F1E799B2411A0A44210A02F8021C02F861
:10564000013CF0BD38B5044601F010FE002814BF3F
:105650000125002502D1204601F040FF284638BD33
:105660002DE9F04788B00446DDF840809DF850A051
:10567000894617461E46FFF7E5FF0546002840F01D
:10568000CD80214601A8FFF7BDFEA16C002940F0A6
:105690008880B4F84C20A16B2B46204601F068FDB1
:1056A00000287AD0012323849DF85430E269042B2A
:1056B0005B4B40F08180186899889B79ADF80C109D
:1056C0008DF80E300290C2F805009DF80E30BDF83E
:1056D0000C10A2F80910D3720C23B8F1000F00F0DF
:1056E00081809DF848009DF84420400140EAC200B6
:1056F00040F00600C0B2BAF1000F01D100F0FD0089
:105700001FB1002E70D140F08000E269D054226DAC
:10571000E169581C12120A549A1CE169206D8854E0
:105720000333E26949462046FFF770FF0346B8F1AC
:10573000000F0BD0E26941462046FFF767FFE269A0
:10574000139903462046FFF761FF034667B1E269FC
:1057500039462046FFF75AFF03462EB1E26931462B
:105760002046FFF753FF0346053BE2699BB2102139
:105770002046FFF70FFF00F07DFAC4E909004FF45F
:105780007A76204601F050FE88BB00F073FAA36AD7
:10579000C01A236D73439842F3D9204601F09EFE50
:1057A00035E002A801F028F9B4F84C202B4602A9F4
:1057B000204601F0BDFD73E7D3F80700D3F80B10C6
:1057C000DB7B0DF1080CACE803008CF8003002AB79
:1057D00003CBC2F80500C2F809109CF800305373DF
:1057E0000E237AE7022086E740F0C0008DE702A989
:1057F0002046FFF77DFE0428CFD1E369DE78002E36
:10580000CBD100F037FA0125A06284F82C6001A802
:10581000FFF703FE284608B0BDE8F0870025F9E74A
:10582000FCA10B007FB501230422CDE90432002343
:10583000CDE90233CDE900331A46FFF711FF07B077
:105840005DF804FB2DE9F74FDDF83C809DF83450FE
:105850009DF8389004468B4616461F46FFF7F2FE29
:105860008246002851D0214601A8FFF7CBFDB4F8AD
:105870005420E069002104F0E1FA0523E269594669
:105880002046FFF7C3FE6B1E012B15D8218CE36960
:10589000013189B22184090A1954421CE369218C1F
:1058A00092B20230995480B2B8F1000F04D0238C28
:1058B0005A1C2284A8F8003000210B188F42E2699C
:1058C0009BB20AD9B4F854C09C4506D916F801C059
:1058D00002F803C0013189B2EFE79DF830100029CA
:1058E0000CBF30213121B9F1000F01D041F0080186
:1058F000022D0ED141F00401053B9BB22046FFF77B
:1059000049FE824601A8FFF788FD504603B0BDE876
:10591000F08F012D08BF41F00201EDE71FB5089C93
:105920000394002402949DF81C4001949DF81840B3
:105930000094FFF787FF04B010BD30B587B0044670
:1059400010460591049204F0DEFA00250346CDE9E5
:105950000155DDE9042100952046FFF7DFFF07B080
:1059600030BD73B504460E46FFF76CFE0546C8B160
:10597000214601A8FFF746FDE36962221A70E36938
:1059800002225A70E369320A9A70E369DE70E169B3
:105990000422204601F01DFB051E01A818BF0125A9
:1059A000FFF73BFD284602B070BD73B504460E46B6
:1059B000FFF748FE0546C8B1214601A8FFF722FDC2
:1059C000E36972221A70E36902225A70E369320AAB
:1059D0009A70E369DE70E1690422204601F0F9FA69
:1059E000051E01A818BF0125FFF717FD284602B0C4
:1059F00070BD2DE9F04F2DED028B87B000AF04464E
:105A0000FFF720FE8146F8B1214607F11400FFF7A9
:105A1000F9FC00F02FF9236D4FF47A725343A26A18
:105A2000821A9A42064603D8626A821A934221D2A7
:105A300094F82C307BB1204601F050FD4FF0000966
:105A400007F11400FFF7E9FC48461C37BD46BDECE2
:105A5000028BBDE8F08FE269C0211170E2695370DA
:105A6000E1690222204601F0B4FAC4E90966012383
:105A700084F82C30204601F0D7FC0028E0D007F154
:105A800013012046FFF734FD83460028D8D0E36990
:105A9000A662197801F0F002302A7FD1D4F830A044
:105AA000BAF1000FCCD097F813C06A4608EE102A5E
:105AB00003EB0C025178957805EB0125ADB205F1A9
:105AC00008026946D208A1EBC20295460CF1030216
:105AD000FA6003EB020E0DEB05026846C7F808D02A
:105AE0007A60D7E901218A4206D00A461EF8018B66
:105AF00002F8018BBA60F4E70022425593F8008067
:105B0000F96808F00608ABEB0C02033AB8F1020F93
:105B1000A2EB0502294425D113F801E01944023A09
:105B200091F801B00CF10501294419440BEB0E2B3F
:105B3000D047E36940221A70E3691FFA8BFB83F8B0
:105B40000180E3694FEA1B229A70E36983F803B08E
:105B5000E1690422204601F03CFA666218EE103A30
:105B60009D466DE7B8F1040F15D113F801E0194413
:105B7000023A91F801B00CF10501294419440BEBEC
:105B80000E2BD047E36950221A70E36902221FFAF4
:105B90008BFB5A70D5E71944D047DFE7502A08D16C
:105BA0009A78D97801EB022189B22046FFF7D9FE15
:105BB00046E7402A12D1626B002A3FF441AFBBF1A5
:105BC000040F7FF43DAF11F0060F7FF439AF9978E1
:105BD000D87800EB012080B2904731E7602A08D1E5
:105BE0009A78D97801EB022189B22046FFF7DDFED1
:105BF00026E7702ADFD0902A3FF422AFC02A0AD1CC
:105C0000D0221A70E36900225A70E169022220460C
:105C100001F0DFF914E7D02A04BF002384F82C3008
:105C20000EE7000008B5024B1B681B6B019308BD13
:105C30004802030008B5024B1B689B6B019308BD2B
:105C40004802030008B5024B1B681B6C019308BD9A
:105C50004802030008B5024B1B685B6C019308BD4A
:105C60004802030008B5024B1B685B68019308BD3E
:105C70001802030008B5024B1B685B69019308BD5D
:105C80001802030008B5024B1B685B68019308BD4E
:105C90002C02030008B5024B1B689B68019308BDEA
:105CA0002C02030008B5024B1B68DB68019308BD9A
:105CB0002C02030008B5024B1B681B69019308BD49
:105CC0002C02030008B5024B1B685B69019308BDF9
:105CD0002C02030008B5024B1B681B6B019308BD27
:105CE0002C02030008B5024B1B68DB6C019308BD56
:105CF0002C02030008B5024B1B68DB68019308BD4A
:105D00002802030008B5024B1B689B69019308BD7C
:105D10002802030008B5024B1B68DB69019308BD2C
:105D20002802030008B5024B1B681B6A019308BDDB
:105D30002802030008B5024B1B685B6A019308BD8B
:105D40002802030008B5024B1B689B6A019308BD3B
:105D50002802030008B5024B1B68DB6A019308BDEB
:105D60002802030008B5024B1B681B6B019308BD9A
:105D70002802030008B5024B1B685B6B019308BD4A
:105D80002802030008B5024B1B681B6C019308BD79
:105D90002802030008B5024B1B681B6D019308BD68
:105DA0002802030008B5024B1B685B69019308BD1C
:105DB0006C02030008B5024B1B685B69019308BDC8
:105DC0006402030008B5024B1B681B6A019308BDFF
:105DD0006402030008B5024B1B689B6A019308BD6F
:105DE0006402030008B5024B1B689B68019308BD61
:105DF0006802030008B5024B1B68DB68019308BD0D
:105E00006802030008B5024B1B689B69019308BD3B
:105E10003802030008B5024B1B68DB69019308BD1B
:105E20003802030008B5024B1B681B6A019308BDCA
:105E30003802030008B5024B1B689B6A019308BD3A
:105E40003802030008B5024B1B681B6B019308BDA9
:105E50003802030008B5024B1B689B6B019308BD19
:105E60003802030008B5024B1B681B68019308BD8C
:105E70003002030008B5024B1B685B69019308BD43
:105E80003002030008B5024B1B68DB69019308BDB3
:105E90003002030008B5024B1B681B6A019308BD62
:105EA0003002030008B5024B1B685B6A019308BD12
:105EB0003002030008B5024B1B68DB6B019308BD81
:105EC0003002030008B5024B1B681B6C019308BD30
:105ED0003002030008B5024B1B685B6C019308BDE0
:105EE0003002030008B5024B1B68DB68019308BD54
:105EF0003C02030008B5024B1B681B69019308BDF7
:105F00003C02030008B5024B1B685B69019308BDA6
:105F10003C02030008B5024B1B689B69019308BD56
:105F20003C02030008B5024B1B68DB69019308BD06
:105F30003C02030008B5024B1B681B6A019308BDB5
:105F40003C02030008B5024B1B689B6A019308BD25
:105F50003C02030008B5024B1B681B6C019308BD93
:105F60003C02030008B5024B1B681B68019308BD87
:105F70004C02030008B5024B1B685B68019308BD27
:105F80004C02030008B5024B1B681B69019308BD56
:105F90004C02030008B5024B1B685B69019308BD06
:105FA0004C02030008B5024B1B689B69019308BDB6
:105FB0004C02030008B5024B1B68DB69019308BD66
:105FC0004C02030008B5024B1B681B6A019308BD15
:105FD0004C02030008B5024B1B681B6D019308BD02
:105FE0006002030008B5024B1B685B68019308BDA3
:105FF0002002030008B5024B1B685B69019308BDD2
:106000002002030008B5024B1B68DB6C019308BD3E
:106010002002030008B5024B1B685B6D019308BDAD
:106020002002030008B5034B1B68D3F888300193A6
:1060300008BD00002002030008B5034B1B68D3F81D
:106040009430019308BD00002002030008B5024B04
:106050001B685B69019308BD4402030008B5024B4D
:106060001B681B6A019308BD4402030008B5024B7C
:106070001B68DB6B019308BD4402030008B5024BAB
:106080001B685B68019308BD4002030008B5024B22
:106090001B689B68019308BD4002030008B5024BD2
:1060A0001B68DB68019308BD4002030008B5024B82
:1060B0001B681B69019308BD4002030008B5024B31
:1060C0001B685B69019308BD4002030008B5024BE1
:1060D0001B689B69019308BD4002030008B5024B91
:1060E0001B68DB69019308BD4002030008B5024B41
:1060F0001B681B6A019308BD4002030008B5024BF0
:106100001B681B6B019308BD4002030008B5024BDE
:106110001B685B6B019308BD4002030008B5024B8E
:106120001B681B6C019308BD4002030008B5024BBD
:106130001B685B6C019308BD4002030008B5024B6D
:106140001B681B68019308BD1C02030008B5024BC5
:106150001B685B68019308BD1C02030008B5024B75
:106160001B689B68019308BD1C02030008B5024B25
:106170001B685B6A019308BD1C02030008B5024B53
:106180001B68DB6A019308BD1C02030008B5024BC3
:106190001B681B6B019308BD1C02030008B5024B72
:1061A0001B68DB6B019308BD1C02030008B5024BA2
:1061B0001B681B6C019308BD1C02030008B5024B51
:1061C0001B685B6C019308BD1C0203000021FFF7F4
:1061D00011BF10B5836804460BB901F0F9FCC36820
:1061E0009847A3681BB103222146204698472046C2
:1061F0001021BDE81040FDF754BF10B58368044678
:1062000013B1032201469847204610BD13B50B4633
:106210000246D0E900016C4684E8030093E80300DD
:1062200082E8030094E8030083E8030002B010BD95
:10623000024800230360FFF70DBD00BFC4E6032042
:1062400070470020704710B510210446FDF729FF64
:10625000204610BD08B5FFF7F6FF08BD30B5002297
:106260004FF69C74026084808D888C800C688580D9
:1062700004600A6030BD10B504460068FFF766FF91
:10628000204610BD38B5C468F4B12378022B03D181
:1062900004F10C00FFF7EFFF656835B12846FFF702
:1062A000ACFF10212846FDF7FCFEA56835B1284655
:1062B000FFF7A3FF10212846FDF7F3FE2046142127
:1062C000BDE83840FDF7EDBE38BD0B6803604B6894
:1062D000436013B15A6801325A60704737B50446BB
:1062E00068460D46FFF7F1FF009B019A236062604C
:1062F000002301A801930093FDF7FEFF35B1281D8F
:10630000FDF7FAFF08212846FDF7CBFE204603B033
:1063100030BD826810B50AB901F05AFCBDE81040E2
:10632000C368184708B5006800F11001FFF7F1FFD6
:1063300008BD826810B50AB901F04AFCBDE81040FA
:10634000C368184708B5006800F11001FFF7F1FFB6
:1063500008BD000038B500230446036010200D4638
:10636000FDF799FE28B10123C0E90133024B036018
:10637000C5602060204638BD1CA20B0038B5002344
:1063800083608B6804460D462BB102229847EB6868
:10639000E360AB68A360204638BD0000F0B589B06B
:1063A00004686846FFF75AFF4FF00203D4E84F2F06
:1063B000002A03D1C4E8413F0029F7D125D104F1D7
:1063C0000C0569462846FFF749FFBFF35B8F0123A1
:1063D0006370002004F10803BFF35B8F53E8006F84
:1063E00043E80002002AF9D1BFF35B8F6EB1FFF7DB
:1063F00009FE78B129463046FFF78BFF3046FFF79C
:10640000FCFE10213046FDF74CFE6846FFF733FFD7
:1064100009B0F0BD314602A8FFF7B0FFE068B4F95B
:10642000105008B103F052FD06901020ADF81C503A
:10643000FDF731FE0546E8B1002787601820FDF71B
:106440002AFE044688B10146876002A8FFF7DEFEF7
:10645000049BA268A360059B049206A9E268E3601E
:1064600004F110000592FFF7F9FE084BEB60084BB2
:106470002C60AB6006A8FFF7FEFE02A8FFF7BDFE8A
:10648000002229460348FFF7C5FDB7E725630B0047
:10649000A9650B00D3610B002DE9F04F8BB00546C9
:1064A0009DF850A00F4690469946FFF7CFFD07AEE6
:1064B000834638BB4FF62E73059005A93046ADF8DC
:1064C0001830FFF7CBFE1420FDF7E5FD044648B178
:1064D000022303700123C0E901BB437031460C3035
:1064E000FFF7BCFE2846214640F8044BFFF732FF79
:1064F0003046FFF7C0FE05A8FFF7BDFE28460BB0EB
:10650000BDE8F08F0C2300241420CDE90844079344
:10651000FDF7C1FD014618B1C0E9014404704470A3
:1065200004A80391FFF716FF1E4B08930820FDF700
:10653000B2FD044610B103A9FFF7C7FE00965FFA4B
:106540008AF34A46414638460994FFF787FDB8B9B1
:10655000039B5B7803F0FF0293B94FF69C7305A988
:1065600003A80592ADF81830FFF718FF05A8FFF74C
:1065700082FE05A80999FFF7B1FE06A8FDF7BCFE4B
:1065800003A905A8FFF7A1FE059B069A2B606A6088
:10659000002306A806930593FDF7AEFE04A8FDF7B9
:1065A000ABFEABE725660B00012AF8B5054603D123
:1065B0000B6803600020F8BD022A10D0032AF9D12D
:1065C0000468002CF6D004F11000FFF754FE2046BA
:1065D000FFF713FE18212046FDF763FDEAE71820B8
:1065E0000E68FDF758FD044650B13146FFF7C6FE70
:1065F0003069B6F9147008B103F068FC2061A78215
:106600002C60D7E738B5002383608B6804460D46BD
:106610002BB102229847EB68E360AB68A360204689
:1066200038BD0000F0B589B004460D4601A81146FA
:10663000FFF754FEA4B124B21DB1284603F046FC76
:10664000054601A803A90395ADF81040FFF7A6FE83
:1066500003A8FFF710FE02A8FDF74EFE09B0F0BD3B
:10666000019D0123D5E84F2F002A03D1C5E8413F02
:106670000029F7D1EFD12B73BFF35B8F6B702B1D0C
:10668000BFF35B8F53E8006F43E80042002AF9D163
:10669000BFF35B8F002EDED02046FFF7B3FC07462A
:1066A00060B105F10C013046FFF743FE3046FFF7BD
:1066B000A4FD10213046FDF7F4FCCCE7314603A8D9
:1066C000FFF7A0FF2B7B8DF81C301020FDF7E3FCBB
:1066D0000546D0B187601420FDF7DDFC044678B193
:1066E0008760014603A8FFF791FD059BA268A360A0
:1066F000069B0592E268E3609DF81C3006922374C5
:10670000064BEB60064B2C60AB6003A8FFF775FDF2
:10671000002229460348FFF77DFCC7E745630B00CD
:1067200029670B00D3610B00012A70B5044603D121
:106730000B680360002070BD022A0CD0032AF9D137
:106740000468002CF6D02046FFF757FD14212046A0
:10675000FDF7A7FCEEE714200E68FDF79CFC05464C
:1067600020B13146FFF74EFF337C2B742560E1E703
:10677000002240681146FFF7B9BC0022406811466C
:10678000FFF7C4BC40680022FFF7B8BC4068002295
:1067900081F00101FFF7A2BC002340681A461946A8
:1067A000FFF794BC002340681A461946FFF786BCE1
:1067B000002240681146FFF779BC0022406811466C
:1067C000FFF764BC406800220221FFF767BC00238A
:1067D00040681A46FFF752BC024B03225A60024A35
:1067E0001A607047C8E6032038A20B007047F8B55E
:1067F000064615460C468F18BC4206D0336814F87E
:10680000011B9B6830469847F6E72846F8BD007C98
:106810000022FFF787BA007C0021FFF78BBA007CCB
:106820000021FFF78FBA007C0021FFF793BA007CAC
:106830000021FFF797BA10B514210446FDF731FC8B
:10684000204610BD38B5044615464FF47A73002231
:10685000C4E90123094B2174084623602946FFF748
:1068600091FABF3008D16B69DB0705D56868FFF77F
:106870006DFCE868FFF76AFC204638BD74A20B0087
:106880000023007C1A461946FFF734BA7FB5002270
:106890001423CDE90122ADF804300B788DF80830CF
:1068A0004B680393CB680493007C0B7A059301A992
:1068B000FFF770FA07B05DF804FB1FB5003B8DF8D9
:1068C00000104FF06401039118BF01236946019243
:1068D0008DF80830FFF7DAFF05B05DF804FB0123FF
:1068E000FFF7EBBF007C0022FFF70CBA007C002210
:1068F000FFF710BA0121FFF7F9BF704710B5182153
:106900000446FDF7CEFB204610BDF0B5037D062BF7
:106910008DB00E4600F104074FF0000412D000F1D4
:10692000080515F8011D0A22304600F06AF9AF4249
:10693000044419D0002CF4D02E21304600F052F936
:106940000444EEE72F236A4639460A208DF80040BA
:10695000FFF730FA684603F0D6FA33680246DB6880
:10696000694630469847044620460DB0F0BD000009
:1069700010B5054B0446112240F8043B002103F0FA
:106980005DFA204610BD00BF9CA20B000346074ADB
:1069900010B543F8042B01F1100251F8044B43F8F1
:1069A000044B9142F9D10A781A7010BD9CA20B00D9
:1069B000037D042B04D14068003818BF01207047C4
:1069C000062B07D143683BB983682BB9C3681BB951
:1069D0000069F1E7002070470120704710B59DF86D
:1069E000084044EA032343EA024242EA01610423E5
:1069F0004160037510BD000007B5064B0360CB78FE
:106A000000938B784A780978FFF7E8FF03B05DF8C8
:106A100004FB00BF9CA20B00014B024A1A607047A6
:106A2000D0E60320A8A20B00002340681A46FFF717
:106A300025BB406800220221FFF730BB00224068DE
:106A40001146FFF723BB002240681146FFF72EBB1B
:106A5000002340681A461946FFF730BB0023406800
:106A60001A461946FFF732BB40680021FFF756BBB4
:106A700040680021FFF75ABB4068002281F0010105
:106A8000FFF72CBB40680022FFF738BB00224068AC
:106A90001146FFF73BBB002240681146FFF726BBBB
:106AA0002DE9F04395B014460D460746FFF760FF09
:106AB00000211C220DA8009103F0C0F940230C9383
:106AC00020466B460CAA0021FFF794F904460028E3
:106AD0004BD1024601216868FFF7E8FA022180469F
:106AE00022466868FFF7E2FA009E81462146002EA2
:106AF0003BD0002939D17368022B03D00A2B11D067
:106B0000F669F4E7B8F1000FFAD0716906A804310C
:106B100007ADFFF771FF0FCD3C1D0FC42B6823702D
:106B20004146EDE7B9F1000FEAD07469102201A8DF
:106B300003F084F906238DF8143001AD04F1080345
:106B40001834186859682A4603C20833A342154608
:106B5000F7D101A906A807ADFFF718FF0FCD3C1D1F
:106B60000FC42B6823704946CAE70098FFF73AF92B
:106B7000384615B0BDE8F083024B034A1A60002284
:106B80005A607047D4E60320B4A20B00F8B506465D
:106B90000D468F180024BD420CD0336815F8011B38
:106BA0009B6830469847031E01DB1C44F3E7002C2A
:106BB00008BF1C462046F8BD13B50446084659B127
:106BC000019103F0A0F923680199DB680246204691
:106BD00002B0BDE81040184702B010BD08B5FFF77D
:106BE000EBFF08BD03689B68184738B50D210546C3
:106BF000FFF7F8FF0A2104462846FFF7F3FF204479
:106C000038BD30B58BB00023012A8DF8243098BFF1
:106C10000A2209AC0D46B1FBF2F101FB125303F05D
:106C2000FF03092B94BF30333733DBB2AA4204F899
:106C3000013DEFD92146FFF7BFFF0BB030BD2DE975
:106C4000F04186B000AF05460E46381D14211446AB
:106C50003B60FFF78BFA13280ED8391D2846FFF743
:106C6000ABFF04461EB12846FFF7BFFF0444204691
:106C70001837BD46BDE8F08100F1080323F0070393
:106C8000E846ADEB030D2246411C3B686846FFF722
:106C90006DFA69462846FFF78FFF0446C546E1E7CF
:106CA000014B00229A607047DCE603200021FFF7C9
:106CB00011B90021FFF706B910B504460846217046
:106CC000FFF7E0F800236360204610BD13B50446CB
:106CD0000078FFF7EEFF58B9207801904FF6FF716A
:106CE000FFF7C0F8019802B0BDE81040FFF7DEBF23
:106CF00002B010BD0078FFF7D9BF0000400830B5E2
:106D00001860002418688842E5B206D90134082CBE
:106D100002D040081860F5E70725024B5B5D137051
:106D200030BD00BFE8A20B002DE9F04306468FB04E
:106D300000780C46FFF7BDFF00281BDB35781422D6
:106D4000002109A803F07AF80B23002209A928469C
:106D5000ADF82430FFF7A6F89DF82D3013B19DF85B
:106D60002C5055B10027B946B846012523795DB1AD
:106D7000C3B100200FB0BDE8F083DDF830809DF88E
:106D800034909DF83570F1E7002B35D1A368434569
:106D900008D18DF820908DF82170BDF82020A389AE
:106DA0009A42E6D00023A1688DF80F300A9804AB10
:106DB0000DF10F02FFF7A2FF217985B989B9A36808
:106DC00043450ED38DF820908DF82170BDF820201A
:106DD000A3899A4205D1049B434502D1C9E7002902
:106DE000F9D100230193637B00939DF80F20237B4F
:106DF0003078FFF75FF8BCE7CDE900552B462A460F
:106E00000121F5E708B50078FFF734F8C0B208BDF6
:106E100010B504460068FFF799F9204610BD10B57B
:106E20000446006808B1FFF791F90023C4E9013373
:106E3000236010BD38B504460D4600680131FFF7E8
:106E40008DF910B1C4E90005012038BD10B5036803
:106E5000044623B143688B4201D3012010BD204674
:106E6000FFF7E8FF0028F9D0A368002BF5D12268CE
:106E70001370F2E737B50D46114601920446FFF74D
:106E8000E5FF019A28B92046FFF7C9FF204603B065
:106E900030BDA2602946206802F0C2FF2268A368C4
:106EA0000021D154F2E7002313B5C0E900330446B2
:106EB0008360037341B10846019103F024F80199FE
:106EC00002462046FFF7D6FF204602B010BD88429A
:106ED00010B5044605D00B682BB18A681946FFF738
:106EE000C9FF204610BDFFF79AFFFAE710B500234F
:106EF0000446C0E9003383600373FFF7E8FF2046D0
:106F000010BD13B5044659B10846019102F0FBFFCC
:106F1000019902462046FFF7ADFF204602B010BDA2
:106F2000FFF77DFFF9E710B504468AB00023C4E9F6
:106F30000033A3602373084601A900F081FC01A976
:106F40002046FFF7DEFF20460AB010BD70B50546AB
:106F50000E4609B9002070BD6AB184681444214608
:106F6000FFF774FF0028F5D02868AB683146184455
:106F700002F0A4FFAC600120EDE710B58A68096853
:106F80000446FFF7E3FF10B92046FFF748FF20460D
:106F900010BD0000054B02221A60054B054A9A609D
:106FA0000020C3E90000FFF71DB800BFF8E603208A
:106FB000ECE603200000FFFF13B503688DF807100F
:106FC000DC6B01224FF0FF330DF10701A04702B047
:106FD00010BD10B40368DC6B4FF0FF33A4465DF8BE
:106FE000044B604713B5134602688DF80710D46B45
:106FF0000DF107010122A04702B010BD10B5436991
:10700000B3F88620B3F884309A42044608D0636906
:10701000B3F88420511CA3F884101344187910BDD0
:1070200003681B6998470028F1D14FF0FF30F6E75D
:10703000704743691868C043C00F7047704700002D
:10704000064B994210B500F10C0405D0084600F03B
:10705000C3FD002808BF0024204610BD0CA20B0071
:1070600010B5AC210446FDF71CF8204610BDAC213C
:10707000FDF717B82DE9F0414FF0000886B01C4627
:10708000C0F8048005460E4617464146102202A865
:1070900002F0D4FE631C09D04FF47A73B4FBF3F210
:1070A00003FB1244CDE902285C4304946869102371
:1070B0000093006802AB41F2050240F6FF71FEF753
:1070C000A1FE002807DAFFF769F803686B6000206B
:1070D00006B0BDE8F0816869002300683A46314691
:1070E000FEF7B0FE031EEEDB1846F1E738B5846903
:1070F0000A4B036005467CB16368013B63605BB982
:10710000236820469B689847A368013BA3601BB98E
:1071100023682046DB689847284638BD2CA30B001F
:1071200010B50446FFF7E2FF20461C21FCF7B9FF2B
:10713000204610BD30B587B0044601AD6846FFF764
:107140005BFC0FCD04340FC42B68237007B030BD37
:1071500070B54D69054B04468C3544F8043B064632
:107160000FCD0FC42B682370304670BD9CA20B005E
:107170002DE9F0439846036893B00D460024DB6A7E
:1071800006461746984728466B46224621460094F5
:10719000FEF730FE0546002863D1009B002B4BD044
:1071A0005B69002B48D006A8FFF7E2FB009B5C69F7
:1071B0006378022B04D1211D06A8FFF7BBFF26E050
:1071C0000A2B24D11122294601A802F037FEA36818
:1071D000002B38D004F108030DF1040C18341868A2
:1071E0005968624603C20833A3429446F7D1062386
:1071F00001A90CA88DF81430FFF7C8FB0DF1340C71
:10720000BCE80F0007AC0FC4DCF80030237006A800
:10721000FFF7CEFB80B1336807ADD3F82090124B57
:107220000C930FCD0DAC0FC42B6823703A46434628
:107230000CA93046C84705460098FEF7D3FD2846FE
:1072400013B0BDE8F083E368002BC3D14FF6FF70A5
:10725000D4F81090FEF7B6FD8145BBD104F11401BE
:10726000AAE72546E8E700BF9CA20B0038B54369B2
:107270001A68002A054610DAB3F88620B3F884307D
:107280009A420AD103681B699847044628B92B68BB
:107290002846DB6A9847204638BD0120FCE710B538
:1072A0004369B3F88620B3F884309A42044605D087
:1072B0006369B3F884201344187910BD03681B690F
:1072C00098470028F4D14FF0FF30F6E7F8B543694E
:1072D0001746B3F88620B3F884309A4205460E4626
:1072E00016D06969B1F88430B1F88640E41ABC421E
:1072F00028BF3C46043322461944304602F090FD34
:107300006A69B2F884302344A2F884302046F8BD7C
:1073100003681B6998470028E3D14FF0FF34F5E775
:1073200042690023A2F884304269A2F8863070478F
:107330002DE9F0411F4603680C46DB6A8AB005461A
:1073400016469847237DD5F81480042B0CBF0220E5
:107350000A2006220121FEF77DFDC8F800006B69B6
:107360001B68002B08DA2B682846DB6A0024984744
:1073700020460AB0BDE8F0812846FFF7D1FFB7B13B
:10738000002303A9F8B20393ADF81030FEF70AFD0D
:107390000028E8D1686906230093006803AB41F236
:1073A0000B0240F6FF71FEF72DFD0028DBD11C22F9
:1073B000002103A802F042FD237D042B1DD14FF4D0
:1073C00007733046ADF80C30FEF704FDADF80E0043
:1073D0006068FEF7F7FC04906B691C22186803A92B
:1073E000FEF720FD0028BED104340FCC6D698C352A
:1073F0000FC523682B700124BAE740F61C233046E2
:10740000ADF80C30FEF7E6FC05AEADF80E00231D1E
:1074100004F1140718685968324603C20833BB42A6
:107420001646F7D1D8E7000030B54269B2F8863089
:107430008BB004462BB1B2F884209A4201D1FFF7F9
:107440006FFF61690868002818DBB1F886507F2D4E
:1074500014D804310823C5F180022944FEF7EAFC60
:10746000002813DD6369B3F886200AB9A3F88420E5
:107470006369B3F886201044A3F886006369B3F803
:107480008600B3F88430C01A0BB030BDFEF786FE1C
:1074900003680B2BF2D0FEF781FE03680B2BEDD0B7
:1074A00020230025CDE90235FEF778FE036801931D
:1074B000084B0949009302AA2B463220FEF78AFDA9
:1074C00063691868FEF7A6FC63694FF0FF321A6023
:1074D000D4E700BFF7A20B00F0A20B0010B5436980
:1074E00004461868002801DBFEF794FC63694FF03E
:1074F000FF321A606069112200218C3002F09EFC7C
:107500002046BDE81040FFF70BBF10B5002304462E
:107510000160C0F884308830FFF72AFA204610BD99
:1075200073B500234FF47A72C0E901320E4A036149
:10753000026043610446AC200191FCF7ACFD051EDE
:1075400005F10C0608D00123C5E90133074B019969
:107550002B603046FFF7D9FF2046C4E90565FFF7E9
:10756000DFFE02B070BD00BF2CA30B0010A30B0008
:1075700010B54FF0FF310446FFF7D2FF204610BD93
:1075800010B504460068002801DBFEF743FC2046E6
:1075900010BD0C30FFF7F4BF024B1A68024B1A60A3
:1075A000704700BF28E50320FCE6032070474174C4
:1075B000704708B5007CFEF7C5FC20EAE07008BD06
:1075C00008B5007CFEF796FC20EAE07008BD08B51F
:1075D000007CFEF79FFC40EAE07008BD08B5007C27
:1075E000FEF790FC40EAE07008BD007CFEF79ABC14
:1075F00037B5457C04462DB1207C03B0BDE8304052
:10760000FEF770BC007C0191FEF79CFC00280199FC
:10761000F2DC284603B030BD10B514210446FCF757
:1076200040FD204610BD000010B54FF47A730446AB
:10763000084611460022C4E90123044B23600123BC
:1076400020746374FEF786FC204610BD94A30B00E3
:10765000417470477047704708B50021007CFEF701
:10766000A1FC40EAE07008BD08B50121007CFEF7EE
:1076700099FC40EAE07008BD08B5007CFEF78AFC82
:1076800020EAE07008BD08B5007CFEF77BFC20EA2C
:10769000E07008BD13B50446007C0191FEF77AFC4A
:1076A0000028019901DC607C20B1207CFEF782FC7F
:1076B00020EAE07002B010BD007CFEF783BC10B57C
:1076C00014210446FCF7EDFC204610BD10B54FF424
:1076D0007A73044608460021C4E90113044B236071
:1076E0000123207463741146FEF73CFC204610BD54
:1076F000C4A30B00007C0022FEF73CBC10B5142292
:107700000446002102F09AFB204610BD10B50F4C34
:1077100088B003A8FFF7F2FF2178BFF35B8F11F069
:1077200001010FD120460191FCF7BDFC019948B140
:1077300003AA0748FFF7CAFF2046FCF7B9FC054833
:1077400002F068FB024808B010BD00BF00E703204C
:1077500004E7032055760B00002240681146FEF72F
:10776000A5BC002240681146FEF7C0BC002240685C
:107770001146FEF7CBBC40680022FEF7BFBC406854
:10778000002281F00101FEF7A9BC002340681A46DF
:107790001946FEF79BBC002340681A461946FEF7BF
:1077A0008DBC002240681146FEF770BC4068002284
:1077B0000221FEF773BC002340681A46FEF75EBC48
:1077C000024B04225A60024A1A60704718E70320ED
:1077D000F4A30B0010B5044602F095FB0138231802
:1077E0002046834206D90278197800F8011B03F875
:1077F0000129F6E710BD70B50C46911E22291DD84F
:10780000254630B9234430229D4210D205F8012B81
:10781000FAE7B0FBF2F602FB1600C1B2092894BFEA
:1078200030315731C9B205F8011B3046E9E7002372
:1078300020462B70FFF7CEFF204670BD0020FCE7EE
:1078400038B5031E0C4615460EDAB3F1004F4FF063
:107850002D0214BF5842184601230A702A461944C3
:10786000FFF7C9FF204638BD0123F9E7014B186037
:10787000704700BF30E5032008B50B4B43B1FFF75D
:1078800045FF03681B699847002801DDAFF30080BE
:10789000064B43B100F076F903681B69984700284E
:1078A00001DDAFF3008008BD000000000000000013
:1078B00008B5FFF7E1FFFEF7DDF9014B186008BDE1
:1078C00028E703200548064A064908B5121A02F0BF
:1078D000A7FA054B054A1A6008BD00BF00F4032053
:1078E00004F40320FCA50B0000F403201E1C279ABF
:1078F00007B5002300931A466FF07701FEF79CFB53
:1079000003B05DF804FB000007B543880A2B08D0DC
:10791000502B0BD1094B1B684BB103B05DF804EB46
:107920001847FFF7E5FF03B05DF804FB0023009361
:107930001A466FF07701FEF77FFBF4E724E7032098
:1079400010B512480021FEF739FC114B1A68114B93
:107950009A42114B0CBF012200221A7001D0FFF78E
:10796000B1FFFEF77FF9044602F070FA0B4B13B13A
:107970002046AFF3008000210848FEF777FBBDE802
:10798000104007480021FEF74DBB00BF6D780B008B
:1079900000F403201E1C279A20E7032000000000AB
:1079A00009790B00232813B502D9002002B010BDBD
:1079B000A0F10B03022B1AD8174C2178BFF35B8F71
:1079C00011F001010BD120460191FCF76CFB0199EC
:1079D00028B11248FFF770F92046FCF769FB0F4BFE
:1079E0001878FEF757FA0028DFD10120DEE70128DA
:1079F00009D800F087F80021007CFEF7BBF980F081
:107A00000100C0B2D2E709380128EED800F0BAF878
:107A1000007CFEF78FFAF2E7B8E60320BCE603200D
:107A2000232838B504460D460AD8FF2908D0FFF7A9
:107A3000B9FF28B129462046BDE83840FEF72AB9EB
:107A400038BD38B504460D46FEF72CF9FF2810D096
:107A5000062804D84D2323FA00F0C30709D4204692
:107A6000FFF7A0FF28B129462046BDE83840FEF7C1
:107A700021B938BD10B50446FEF714F9031FDBB277
:107A8000012B08D92046FFF78DFF20B12046BDE825
:107A90001040FEF717B9002010BD0D2810B50446A0
:107AA0009CBF0E34A4B22046FFF77CFF50B10321E7
:107AB0002046FEF7E7F8032804D12046BDE8104031
:107AC000FEF708B9002010BDFEF70CB970470000A2
:107AD00038B50A4B0360012304464361084920205E
:107AE00000F074F8202560600549A560284600F084
:107AF0006DF8C4E90305204638BD00BF1800010039
:107B000028A40B0030B50E4D2978BFF35B8F11F020
:107B1000010487B011D12846FCF7C5FA68B1684660
:107B2000FFF7D6FF6A4621460648FEF78BFE284639
:107B3000FCF7BEFA044802F06DF9024807B030BD08
:107B40002CE7032030E70320CD7A0B0070470000BC
:107B500038B5044614252A46002102F06FF9258025
:107B60004025074925812846258200F02FF8044941
:107B70006060284600F02AF8E060204638BD00BF6B
:107B800028A40B0030B50E4D2978BFF35B8F11F0A0
:107B9000010487B011D12846FCF785FA68B101A825
:107BA000FFF7D6FF01AA21460648FFF73DFD28460C
:107BB000FCF77EFA044802F02DF9024807B030BD08
:107BC00044E7032048E703204D7B0B00FCF765BA30
:107BD00008B5FEF7D3FA0000014900F0F9B800BF7C
:107BE00044A40B007FB500241023CDE902340368C0
:107BF00015469E6912686B46CDE90044B0479DF872
:107C0000043003F00603062B03BF009B2B6001200A
:107C1000204604B070BD0098904214BF0120062099
:107C20007047000010B5034B0360044600F0CDF828
:107C3000204610BD84A40B0010B50446FFF7F2FFE8
:107C400020460821FCF72DFA204610BD2DE9F04111
:107C50001F46DDE90834DDF81880984506461546CC
:107C600007D1079900F0B4F818B165710020BDE89C
:107C7000F0813946304600F0ABF80028F6D00123F9
:107C8000C4F800802571A371F0E738B515461C468D
:107C900000F09EF820B10823E360062325602371DD
:107CA00038BD73B505460C4601921E4600F090F8AB
:107CB00050B9032E08D82368019A5B6929462046EB
:107CC00002B0BDE87040184702B070BD10B5034B5C
:107CD00003600446FFF7A6FF204610BDE4A40B0096
:107CE00010B50446FFF7F2FF20460C21FCF7D9F946
:107CF000204610BDF7B5089F974205460E4614462C
:107D00000AD0A86802680897156A31462246AC4630
:107D100003B0BDE8F04060471946019300F058F801
:107D2000019B0028EDD0062003B0F0BD2DE9F14FF6
:107D30000D461946DDE90A4BDDE90CA681461746DA
:107D4000984600F045F890B1002D3460377109DB9A
:107D500061198A450CBF06210121B171002001B0D3
:107D6000BDE8F08F0235F9D10123B371F6E7544530
:107D700006D15946484600F02BF808B17771EDE777
:107D8000D9F808000368CDE90CA6CDE90A4BDC69F7
:107D90003A4643462946A44601B0BDE8F04F604745
:107DA0002DE9F04107460C4615461E46FFF76DFFCC
:107DB00048B9B86803689F692A4633462146BC46DD
:107DC000BDE8F0416047BDE8F08170470020704792
:107DD000814208B50ED0406803782A2B0CD0496840
:107DE0000B782A2B08BF013102F05EF8B0FA80F060
:107DF000400908BD0120FCE70020FAE70000000070
:107E0000F8B52DED028B57EC106B55EC114B00F0D3
:107E1000CBF8634BB0EE408AF0EE608A93F9003005
:107E200001332AD022462B462046294601F0C4FCC5
:107E300018BB32463B463046394601F0BDFC0028AF
:107E400044D1002200233046394601F083FCD8B1EA
:107E5000002200232046294601F07CFC00283DD169
:107E600045EC104B00F010FF38B1204629460022A7
:107E7000002301F079FC00285CD1B0EE480AF0EE56
:107E8000680ABDEC028BF8BDB0EE480AF0EE680A55
:107E900000F0FAFE58B351EC180B0022002301F059
:107EA00059FC0028E9D047EC106B00F0EDFE0028EB
:107EB000E3D045EC104B00F0E7FE0028DDD0FEF7E4
:107EC0006DF922239FED2E8B0360D6E720462946CD
:107ED0000022002301F03EFC0028CED09FED2A8B2B
:107EE000B0EE480AF0EE680ABDEC028BF8BD47EC34
:107EF000106B00F0C9FE0028CDD045EC104B00F00F
:107F0000C3FE0028C7D053EC182B18EE100A1946F0
:107F100001F052FC20BBFEF741F9034622221A6011
:107F2000304639460022002301F01EFC48B99FED7F
:107F3000188BA2E7FEF732F921239FED178B036020
:107F40009BE745EC104B00F0B3FE224651EC100BC2
:107F50002B4601F0FFFB0028E9D19FED0F8B8CE74A
:107F6000FEF71CF90022002321210160104619466A
:107F700001F0B2FA41EC180B7FE700BFAFF30080CD
:107F80000000000000000000000000000000F03FC2
:107F9000000000000000F07F000000000000F0FF83
:107FA0002CE50320000000002DE9F04F57EC116B89
:107FB0002DED0C8B27F0004A5AEA060287B03DD01F
:107FC00055EC104B724925F00048884510EE102AF8
:107FD000A9462CDC11EE103ABB4636D08A4526DC89
:107FE0006B498A4521D0B9F1000F39DB002100919E
:107FF000002B51D1664B9A4500F0A280654B9A4503
:1080000000F0B080BBF1804F00F0C084624B9B4514
:1080100042D1B9F1000F3FDB45EC104B07B0BDEC8E
:108020000C8BBDE8F04F00F059BD002BDBD008F100
:10803000404808F5801858EA020309D19FED500B1B
:1080400007B0BDEC0C8BBDE8F08F0CB9C245C7DDA5
:10805000524807B0BDEC0C8BBDE8F04F00F020BEDD
:108060004F498A4500F38580A1F154718A450FDD9F
:108070004FEA2A51A1F2FF31142940F39B84C1F148
:10808000340123FA01F000FA01F1994200F0ED8485
:1080900000210091002BB1D045EC104B029200F072
:1080A000E9FD029A5ABBB8F1000F04D0394B29F010
:1080B00040429A4223D1BBF1000F07DA53EC102B58
:1080C0003449002001F008FA41EC100BB9F1000F1F
:1080D000B6DA009B08F1404808F5801858EA030317
:1080E00040F08D8453EC102B1046194600F012FF1F
:1080F00002460B4601F0F0F941EC100BA0E7009AA4
:108100004FEAD973013B0493134335D0254B9A456D
:108110004CDD03F104739A45234B40F3DB83984510
:1081200040F36083BBF1000F40F3608316A3D3E9F3
:1081300000231046194601F0A5F841EC100B7FE72B
:1081400008F1404303F5801313433FF477AF164B18
:10815000984540F37A83BBF1000FC0F2478347ECA8
:10816000106B6DE7BBF1000FC0F21A8445EC104BA9
:1081700066E7022100913BE722462B46B4E700BFA9
:10818000000000000000F03F9C7500883CE4377E52
:108190000000F07F0000F03F0000E03F20A50B0052
:1081A000FFFF3F430000E041FFFFEF3FE44B09EAE0
:1081B0000303002253B951EC100BE24B01F062F8BB
:1081C00041EC100B10EE908A6FF034024FEA285306
:1081D000A3F2FF339A18DC4B0592C8F3130848F05A
:1081E0007F54984544F4401407DDD84B984540F33C
:1081F000148401320592A4F580149FEDB96B9FEDB4
:10820000BA7B53EC162BB0EE47CAF0EE67CA0025D6
:10821000B0EE47DAF0EE67DA5BEC10ABA3465046FF
:10822000594643EC1A2B00F075FE53EC1A2B80468E
:1082300089465046594600F06FFE02460B46002024
:10824000C34901F049F941EC1B0B404653EC1B2B91
:10825000494601F017F841EC180B0A460146CDE9F2
:1082600002120021029164104BEC19AB44F000544F
:10827000DDE902AB04F500230020591904460D4640
:1082800002460B465046594600F0FCFF02460B469C
:108290004046494600F03EFE53EC1A2B8046894684
:1082A0002046294600F036FE02460B4651EC190BDB
:1082B00000F030FE52465B4600F0E4FF02460B46FB
:1082C0004046494600F026FE53EC1B2B00F0DAFF37
:1082D00053EC182B41EC190B51EC180B00F0D2FFAA
:1082E00083A3D3E9002304460D4600F0CBFF82A30D
:1082F000D3E9002300F010FE22462B4600F0C2FF17
:108300007FA3D3E9002300F007FE22462B4600F0AE
:10831000B9FF7DA3D3E9002300F0FEFD22462B46E2
:1083200000F0B0FF7AA3D3E9002300F0F5FD224668
:108330002B4600F0A7FF78A3D3E9002300F0ECFD63
:108340002246804689462B462046294600F09AFF61
:1083500002460B464046494600F094FF524604460A
:108360000D465B4651EC180B00F0D6FD53EC192B73
:1083700000F088FF22462B4600F0CEFD5246804694
:1083800089465B465046594600F07CFF02460B4644
:1083900043EC1A2B6F4B002200F0BEFD42464B46C9
:1083A00000F0BAFD00240D4622462B4650465946A1
:1083B00000F068FF674B82468B4600222046294624
:1083C00000F0A8FD53EC1A2B00F0A4FD02460B466A
:1083D0004046494600F09EFD53EC182B00F052FF3A
:1083E00022462B4604460D4651EC190B00F04AFF7D
:1083F00002460B462046294600F08EFD80468946FF
:1084000042464B465046594600F086FD44A3D3E908
:108410000023002004460D4600F034FF524641EC94
:10842000190B5B462046294600F074FD02460B46B8
:108430004046494600F06EFD3BA3D3E9002300F01F
:1084400021FF02460B462046294614461D4638A306
:10845000D3E9002300F016FF02460B4620462946CA
:1084600000F05AFD53EC1D2B00F056FD8046059898
:10847000894600F09DFE424682468B464B4651ECB3
:10848000190B00F049FD53EC1C2B00F045FD524642
:108490005B4600F041FD52465B46002004460D4617
:1084A00000F038FD53EC1C2B00F034FD53EC192B7D
:1084B00000F030FD02460B464046494600F02AFDDA
:1084C000009B049A013B134382468B4640F0B681E1
:1084D0009FED197BB0EE478AF0EE678A3CE000BF63
:1084E000000000000000F03F00000000000000005D
:1084F000EF4E454A287ECA3F65DBC9934A86CD3F89
:1085000001411DA96074D13F4D268F515555D53F6E
:10851000FFAB6FDBB66DDB3F033333333333E33F06
:10852000000000E009C7EE3FFD033ADC09C7EE3F5B
:10853000F5015B14E02F3EBE000000000000F0BF1C
:108540000000F07F000040438E98030079B60B00D6
:108550000000F03F000008400023CDE900670093D1
:10856000DDE90089304642464B46394600F0D2FCF0
:1085700022462B4600F086FE32463B4606460F4614
:108580005046594600F07EFE02460B4630463946BC
:1085900000F0C2FC42464B4606460F46204629469E
:1085A00000F070FE04460D462B4630463946224602
:1085B00000F0B2FCC24B9942804689468A4640F39D
:1085C000188101F13F4303F5E003034340F00782C4
:1085D000A3A3D3E900233046394600F09DFC0246B0
:1085E0000B46404649469046994622462B4600F0A7
:1085F00091FC02460B464046494601F0D3F800285C
:1086000040F0ED81CAF30A534FF48012A3F2FE3317
:1086100042FA03F35344AB49C3F30A52A2F2FF32C6
:1086200041FA02FCC3F3130141F48011C2F11402B8
:1086300041FA02F2002023EA0C01BAF1000F009285
:108640000B46024602DA009949420091204629462B
:1086500000F060FC009B1B05029302460B4604469B
:108660000D463046394600F057FC89464FF0000869
:108670007DA3D3E900234046494600F003FE22468D
:108680002B4682468B464046494600F043FC024654
:108690000B463046394600F03DFC75A3D3E9002374
:1086A00000F0F0FD74A3D3E9002304460D464046D4
:1086B000494600F0E7FD02460B462046294600F0F9
:1086C0002BFC06460F4632463B465046594600F0C4
:1086D00023FC52465B4604460D4600F01BFC024656
:1086E0000B463046394600F015FC22468046894646
:1086F0002B462046294600F0C5FD61A3D3E900239F
:1087000006460F4600F0BEFD5FA3D3E9002300F04C
:1087100001FC32463B4600F0B5FD5DA3D3E90023E2
:1087200000F0FAFB32463B4600F0ACFD5AA3D3E919
:10873000002300F0EFFB32463B4600F0A3FD58A3B8
:10874000D3E9002300F0E8FB32463B4600F09AFDF7
:1087500002460B462046294600F0DCFB06460F4643
:1087600032463B462046294600F08CFD02460B4629
:108770003046394616461F4600224FF0804300F02F
:10878000C9FB02460B463046394600F0A5FE42467C
:1087900006460F464B462046294600F073FD4246EA
:1087A0004B4600F0B9FB02460B463046394600F016
:1087B000B1FB22462B4600F0ADFB02460B460020E3
:1087C000414900F0A7FB029A0B461344B3F5801F02
:1087D000C0F24381194653EC182B00F053FD41ECD5
:1087E000100B2DE4BBF1000FFFF6A0AC9FED2E0B9C
:1087F00026E4DFF8DCC021F00043634540F3E78066
:10880000324B0B4403430AD122462B4600F082FB35
:1088100032463B4600F0BCFF00283FF4F3AE24A3F1
:10882000D3E9002351EC180B00F02CFD20A3D3E971
:10883000002300F027FD41EC100B01E49FED1E7BAF
:10884000B0EE478AF0EE678A86E6BBF1000FCDDA1C
:1088500007F1004300EE106A00EE903AFFF7F0BB1C
:10886000FE822B654715973C00000000432EE63F33
:10887000EF39FAFE422EE63F396CA80C615C20BE4F
:10888000D0A4BE726937663EF16BD2C541BDBB3E16
:108890002CDE25AF6A56113F93BDBE166CC1663FF4
:1088A0003E5555555555C53F0000000000000000DD
:1088B00059F3F8C21F6EA501000000000000F03F50
:1088C000FFFF8F40FFFF0F000000F03F00346F3FBD
:1088D000FFCB9040984585DB7D4B98453FF722AC18
:1088E00051EC100B7A4B002200F014FB68A3D3E983
:1088F000002304460D4600F0C5FC67A3D3E900231E
:1089000082468B462046294600F0BCFC714B41EC68
:10891000180B00222046294600F0B4FC02460B4604
:108920005FA1D1E9000100F0F5FA22462B4600F0E4
:10893000A9FC02460B460020674900F0EBFA2246EC
:10894000804689462B462046294600F09BFC02467D
:108950000B464046494600F095FC53A3D3E900235B
:1089600000F090FC02460B4651EC180B00F0D2FAD6
:108970008046894642464B465046594600F0CCFA5E
:10898000002052465B4604460D4691E522462B46A2
:108990002046294600F076FC41EC100BFFF750BB57
:1089A0004B49002022462B4600F096FD41EC100B6F
:1089B000FFF746BB002B44D1C1F114014AFA01F084
:1089C00000FA01F151455AD00093FFF717BB424A14
:1089D00093425BDCDDE900120291009146E634A38C
:1089E000D3E9002351EC180B00F04CFC30A3D3E981
:1089F000002300F047FC41EC100BFFF721BB009B6C
:108A0000012B7FF41DAB10EE901A10EE102A01F12D
:108A1000004343EC102BFFF713BB9FED277BB0EE19
:108A200047CAF0EE67CA9FED267BB0EE47DAF0EE5C
:108A300067DA9FED257B4FF4802553EC172BFFF76A
:108A4000EBBB45EC104B009200F014F9009A002AA1
:108A50007FF492AB0092FFF726BB41EC100B00981D
:108A600000F0C2F951EC100BB5E600F00100C0F1C6
:108A700002010091002B3FF4C1AAFFF70DBB00F0EB
:108A80000100C0F102030093FFF7B8BA1B15BBE564
:108A9000000000604715F73F44DF5DF80BAE543E21
:108AA000555555555555D53FFE822B654715F73F12
:108AB0009C7500883CE4377E0000004003B8E23F2C
:108AC00006D0CF43EBFD4C3E000000000000F83F15
:108AD0000000F03F0000D03F0000E03F2DE9F041F2
:108AE000634A55EC104BAA4300F09F80002D10EE16
:108AF00010CA2B4654DD291563D0C3F31303A1F22A
:108B0000FF37C90743F4801304D45B0003EBDC7325
:108B10004FEA4C0C4FEADC72002602EB43037F1055
:108B20004FEA4C0C4FF0160E34464FF40012A118C9
:108B3000994202DC5B1A8C1816445B00BEF1010EF0
:108B400003EBDC734FEA52024FEA4C0CEFD175464F
:108B500020204FF000420AE044D04FEADC71013897
:108B600001EB43034FEA4C0C4FEA520243D0A342BD
:108B700002EB0E01F0DD002901EB020E0ADBA0463C
:108B80001B1B614588BF03F1FF33ACEB010C15449F
:108B90004446E2E7BEF1000FF1DB04F10108EFE724
:108BA00025F00042224338D0002D4ED129464FEA0D
:108BB000DC22153913464FEA4C5C002AF7D0D60266
:108BC00050D400205B00DD02044600F10100F9D51D
:108BD0001A4663460CFA00FCC0F12000C340091B92
:108BE00013438AE76145B8D8002901EB020ED1DBB7
:108BF00098460023C9E753EA0C0310D168087110A6
:108C0000F30701F17F5101F5001148BF40F000402A
:108C100001EB0753024643EC102BBDE8F0816A1CC0
:108C200016BF681C01364008E9E710EE102A10EE66
:108C3000100A2B46294600F025FB22462B4600F061
:108C40006BF941EC100BBDE8F08110EE102A2046C4
:108C5000294600F05FF902460B4600F03DFC41EC6E
:108C6000100BDAE7634620204FF0FF34B6E700BF71
:108C70000000F07F51EC100B10EE102A21F00043A1
:108C800043EC102B704700BF82B08DED000B0198B4
:108C900040F0004000F58010C00F02B0704700BFE8
:108CA0009FED010B704700BF000000000000F87F3F
:108CB000F0B553EC102BC3F30A5CACF2FF3113296F
:108CC00010EE100A83B01C464FEAD37E3ADC00292E
:108CD00030DB424D45FA01FC03EA0C0515432DD06B
:108CE00003EA5C0318434FEA5C0C0CD024EA0C0C3A
:108CF0004FF48024132944FA01F10CBF4FF00040D7
:108D000000204CEA0104364901EBCE0E2346DEE991
:108D1000004502462946204600F0FEF8CDE9000154
:108D2000DDE9000122462B4600F0F4F841EC100B7F
:108D300003B0F0BD23F00041114324D143EC102BCC
:108D400003B0F0BD332908DDB1F5806FF6D11946C7
:108D500000F0E2F841EC100BF2E7ACF2134C4FF0EC
:108D6000FF3121FA0CF10A42E8D010EA51024FEA31
:108D70005103C8D020EA03034FF0804040FA0CFCB6
:108D800043EA0C00BFE7C3F313031843144A4342FA
:108D9000034302EBCE0E1B0B620C03F400235204C0
:108DA00043EA02073B46DEE9006710EE102A304630
:108DB000394600F0B1F8CDE9000132463B46DDE925
:108DC000000100F0A7F804F0004421F00041024641
:108DD00041EA040343EC102B03B0F0BDFFFF0F008A
:108DE00028A50B000000000038B553EC102BC3F38E
:108DF0000A5104469C4689BB10EE101A23F0004C21
:108E00005CEA010129D0194600223D4B3D4D10EE90
:108E1000100A00F037FAAC4202460B4616DB8C46CD
:108E2000C1F30A513639214440F2FE70814221DCFF
:108E3000002947DC11F1350F34DA4CF250318C4205
:108E400018DC002B26A1D1E9000144DB24A3D3E9DF
:108E5000002300F017FA41EC100B38BD40F2FF7010
:108E60008142E0D110EE100A194600F055F841ECAD
:108E7000100B38BD002B1CA1D1E9000107DB1AA3A0
:108E8000D3E9002300F0FEF941EC100B38BD18A126
:108E9000D1E9000114A3D3E9002300F0F3F941EC78
:108EA000100BF3E72CF0FF4C2CF4E00C36314CEABD
:108EB0000153104619460022134B00F0E3F941EC30
:108EC000100B38BD2CF0FF4C2CF4E00C4CEA015395
:108ED00043EC102B38BD08A1D1E90001B6E700BF73
:108EE00059F3F8C21F6EA5019C7500883CE4377EDB
:108EF0009C7500883CE437FE59F3F8C21F6EA581CB
:108F000000005043B03CFFFF0000903C81F0004166
:108F100002E000BF83F0004330B54FEA41044FEA5E
:108F2000430594EA050F08BF90EA020F1FBF54EAF9
:108F3000000C55EA020C7FEA645C7FEA655C00F095
:108F4000E2804FEA5454D4EB5555B8BF6D420CDD66
:108F50002C4480EA020281EA030382EA000083EAE9
:108F6000010180EA020281EA0303362D88BF30BD89
:108F700011F0004F4FEA01314FF4801C4CEA1131DF
:108F800002D0404261EB410113F0004F4FEA03333E
:108F90004CEA133302D0524263EB430394EA050FC9
:108FA00000F0A780A4F10104D5F1200E0DDB02FA38
:108FB0000EFC22FA05F2801841F1000103FA0EF2CC
:108FC000801843FA05F359410EE0A5F120050EF192
:108FD000200E012A03FA0EFC28BF4CF0020C43FAC3
:108FE00005F3C01851EBE37101F0004507D54FF0D0
:108FF000000EDCF1000C7EEB00006EEB0101B1F520
:10900000801F1BD3B1F5001F0CD349085FEA300065
:109010004FEA3C0C04F101044FEA445212F5800F70
:1090200080F09A80BCF1004F08BF5FEA500C50F10D
:10903000000041EB045141EA050130BD5FEA4C0CF0
:10904000404141EB0101013C28BFB1F5801FE9D24D
:1090500091F0000F04BF01460020B1FA81F308BF70
:109060002033A3F10B03B3F120020CDA0C3208DD3C
:1090700002F1140CC2F10C0201FA0CF021FA02F117
:109080000CE002F11402D8BFC2F1200C01FA02F187
:1090900020FA0CFCDCBF41EA0C019040E41AA2BFAC
:1090A00001EB0451294330BD6FEA04041F3C1CDA74
:1090B0000C340EDC04F11404C4F1200220FA04F094
:1090C00001FA02F340EA030021FA04F345EA03013E
:1090D00030BDC4F10C04C4F1200220FA02F001FA00
:1090E00004F340EA0300294630BD21FA04F0294682
:1090F00030BD94F0000F83F4801306BF81F480111B
:109100000134013D4EE77FEA645C18BF7FEA655C8D
:1091100029D094EA050F08BF90EA020F05D054EA5F
:10912000000C04BF1946104630BD91EA030F1EBF64
:109130000021002030BD5FEA545C05D14000494168
:1091400028BF41F0004130BD14F580043CBF01F55B
:10915000801130BD01F0004545F0FE4141F4700141
:109160004FF0000030BD7FEA645C1ABF194610461C
:109170007FEA655C1CBF0B46024650EA013406BF1D
:1091800052EA033591EA030F41F4002130BD00BFDC
:1091900090F0000F04BF0021704730B54FF4806499
:1091A00004F132044FF000054FF0000150E700BF1A
:1091B00090F0000F04BF0021704730B54FF4806479
:1091C00004F1320410F0004548BF40424FF0000166
:1091D0003EE700BF42004FEAE2014FEA31014FEAA9
:1091E00002701FBF12F07F4393F07F4F81F06051F8
:1091F000704732F07F4208BF704793F07F4F04BF43
:1092000041F40021704730B54FF4607401F000451F
:1092100021F000411CE700BF50EA010208BF70477F
:1092200030B54FF000050AE050EA010208BF704770
:1092300030B511F0004502D5404261EB41014FF4D9
:10924000806404F132045FEA915C3FF4D8AE4FF0E1
:1092500003025FEADC0C18BF03325FEADC0C18BFC4
:10926000033202EBDC02C2F1200300FA03FC20FA15
:1092700002F001FA03FE40EA0E0021FA02F1144462
:10928000BDE600BF70B54FF0FF0C4CF4E06C1CEA7B
:1092900011541DBF1CEA135594EA0C0F95EA0C0FEC
:1092A00000F0DEF82C4481EA030621EA4C5123EA5F
:1092B0004C5350EA013518BF52EA033541F480118E
:1092C00043F4801338D0A0FB02CE4FF00005E1FB41
:1092D00002E506F00042E0FB03E54FF00006E1FB8B
:1092E00003569CF0000F18BF4EF0010EA4F1FF04CE
:1092F000B6F5007F64F5407404D25FEA4E0E6D410E
:1093000046EB060642EAC62141EA55514FEAC5201E
:1093100040EA5E504FEACE2EB4F1FD0C88BFBCF59A
:10932000E06F1ED8BEF1004F08BF5FEA500E50F14B
:10933000000041EB045170BD06F0004646EA010111
:1093400040EA020081EA0301B4EB5C04C2BFD4EB43
:109350000C0541EA045170BD41F480114FF0000E3C
:10936000013C00F3AB8014F1360FDEBF002001F0AA
:10937000004170BDC4F10004203C35DA0C341BDC24
:1093800004F11404C4F1200500FA05F320FA04F0F6
:1093900001FA05F240EA020001F0004221F000412A
:1093A00010EBD37021FA04F642EB06015EEA430E9D
:1093B00008BF20EAD37070BDC4F10C04C4F12005CD
:1093C00000FA04F320FA05F001FA04F240EA020080
:1093D00001F0004110EBD37041F100015EEA430E51
:1093E00008BF20EAD37070BDC4F1200500FA05F271
:1093F0004EEA020E20FA04F301FA05F243EA0203F0
:1094000021FA04F001F0004121FA04F220EA0200FE
:1094100000EBD3705EEA430E08BF20EAD37070BD44
:1094200094F0000F0FD101F00046400041EB010124
:1094300011F4801F08BF013CF7D041EA060195F006
:10944000000F18BF704703F00046520043EB0303C0
:1094500013F4801F08BF013DF7D043EA06037047AD
:1094600094EA0C0F0CEA135518BF95EA0C0F0CD0B8
:1094700050EA410618BF52EA4306D1D181EA0301FE
:1094800001F000414FF0000070BD50EA410606BFF8
:109490001046194652EA430619D094EA0C0F02D13D
:1094A00050EA013613D195EA0C0F05D152EA033682
:1094B0001CBF104619460AD181EA030101F00041A0
:1094C00041F0FE4141F470014FF0000070BD41F0E9
:1094D000FE4141F4780170BD70B54FF0FF0C4CF4C3
:1094E000E06C1CEA11541DBF1CEA135594EA0C0FE2
:1094F00095EA0C0F00F0A7F8A4EB050481EA030E2F
:1095000052EA03354FEA013100F088804FEA033315
:109510004FF0805545EA131343EA12634FEA0222E3
:1095200045EA111545EA10654FEA00260EF00041A4
:109530009D4208BF964244F1FD0404F5407402D2F6
:109540005B084FEA3202B61A65EB03055B084FEA87
:1095500032024FF480104FF4002CB6EB020E75EB84
:10956000030E22BFB61A754640EA0C005B084FEAAC
:109570003202B6EB020E75EB030E22BFB61A754629
:1095800040EA5C005B084FEA3202B6EB020E75EB74
:10959000030E22BFB61A754640EA9C005B084FEAEC
:1095A0003202B6EB020E75EB030E22BFB61A7546F9
:1095B00040EADC0055EA060E18D04FEA051545EAE8
:1095C00016754FEA06164FEAC30343EA52734FEA91
:1095D000C2025FEA1C1CC0D111F4801F0BD141EA0A
:1095E00000014FF000004FF0004CB6E711F4801F6F
:1095F00004BF01430020B4F1FD0C88BFBCF5E06F4F
:109600003FF6AFAEB5EB030C04BFB6EB020C5FEA5E
:10961000500C50F1000041EB045170BD0EF0004EB3
:109620004EEA113114EB5C04C2BFD4EB0C0541EAE5
:10963000045170BD41F480114FF0000E013C90E6E2
:1096400045EA060E8DE60CEA135594EA0C0F08BFA6
:1096500095EA0C0F3FF43BAF94EA0C0F0AD150EAA5
:1096600001347FF434AF95EA0C0F7FF425AF104638
:1096700019462CE795EA0C0F06D152EA03353FF460
:10968000FDAE1046194622E750EA410618BF52EADD
:1096900043067FF4C5AE50EA41047FF40DAF52EAB1
:1096A00043057FF4EBAE12E74FF0FF3C06E000BF4E
:1096B0004FF0010C02E000BF4FF0010C4DF804CD5B
:1096C0004FEA410C7FEA6C5C4FEA430C18BF7FEA1B
:1096D0006C5C1BD001B050EA410C0CBF52EA430C49
:1096E00091EA030F02BF90EA020F0020704710F1C9
:1096F000000F91EA030F58BF994208BF90422CBF58
:10970000D8176FEAE37040F0010070474FEA410C50
:109710007FEA6C5C02D150EA013C07D14FEA430C6E
:109720007FEA6C5CD6D152EA033CD3D05DF8040BDF
:10973000704700BF8446104662468C461946634611
:1097400000E000BF01B5FFF7B7FF002848BF10F1E8
:10975000000F01BD4DF808EDFFF7F4FF0CBF01202D
:1097600000205DF808FB00BF4DF808EDFFF7EAFFA9
:1097700034BF012000205DF808FB00BF4DF808ED64
:10978000FFF7E0FF94BF012000205DF808FB00BF59
:109790004DF808EDFFF7CEFF94BF012000205DF8E3
:1097A00008FB00BF4DF808EDFFF7C4FF34BF0120F0
:1097B00000205DF808FB00BF4FEA410C7FEA6C5CBB
:1097C00002D150EA013C0AD14FEA430C7FEA6C5CBB
:1097D00002D152EA033C02D14FF0000070474FF033
:1097E000010070474FEA4102B2F1E04324BFB3F5F4
:1097F000001CDCF1FE5C0DD901F0004C4FEAC00208
:109800004CEA5070B2F1004F40EB830008BF20F0EB
:109810000100704711F0804F21D113F13872BCBFA5
:1098200001F00040704741F480114FEA5252C2F1FA
:109830001802C2F1200C10FA0CF320FA02F018BF43
:1098400040F001004FEAC1234FEAD32303FA0CFC96
:1098500040EA0C0023FA02F34FEA4303CCE77FEA25
:10986000625307D150EA01331EBF4FF0FE4040F46F
:109870004000704701F0004040F0FE4040F400001E
:10988000704700BF80F0004002E000BF81F000415F
:1098900042001FBF5FEA410392EA030F7FEA226C96
:1098A0007FEA236C6AD04FEA1262D2EB1363C1BF26
:1098B000D218414048404140B8BF5B42192B88BF95
:1098C000704710F0004F40F4000020F07F4018BFB8
:1098D000404211F0004F41F4000121F07F4118BFD8
:1098E000494292EA030F3FD0A2F1010241FA03FC80
:1098F00010EB0C00C3F1200301FA03F100F0004368
:1099000002D5494260EB4000B0F5000F13D3B0F12F
:10991000807F06D340084FEA310102F10102FE2A9E
:1099200051D2B1F1004F40EBC25008BF20F001000E
:1099300040EA03007047490040EB0000013A28BFAD
:10994000B0F5000FEDD2B0FA80FCACF1080CB2EB30
:109950000C0200FA0CF0AABF00EBC25052421843AE
:10996000BCBFD0401843704792F0000F81F4000153
:1099700006BF80F400000132013BB5E74FEA410326
:109980007FEA226C18BF7FEA236C21D092EA030F92
:1099900004D092F0000F08BF0846704790EA010F0C
:1099A0001CBF0020704712F07F4F04D1400028BF39
:1099B00040F00040704712F100723CBF00F500001B
:1099C000704700F0004343F0FE4040F40000704751
:1099D0007FEA226216BF08467FEA236301464202FD
:1099E00006BF5FEA412390EA010F40F48000704710
:1099F0004FF0000304E000BF10F0004348BF4042B6
:109A00005FEA000C08BF704743F0964301464FF0F1
:109A100000001CE050EA010208BF70474FF000034D
:109A20000AE000BF50EA010208BF704711F000438E
:109A300002D5404261EB41015FEA010C02BF84465E
:109A40000146002043F0B64308BFA3F18053A3F5BD
:109A50000003BCFA8CF2083AA3EBC25310DB01FA04
:109A600002FC634400FA02FCC2F12002BCF1004F88
:109A700020FA02F243EB020008BF20F00100704719
:109A800002F1200201FA02FCC2F1200250EA4C006D
:109A900021FA02F243EB020008BF20EADC707047B3
:109AA0007BB972B90029BEBF00204FF0004106E02B
:109AB00008BF00281CBF6FF000414FF0FF3000F0DE
:109AC000A7B9ADF1080C6DE904CE002909DB002B24
:109AD0001ADB00F035F8DDF804E0DDE9022304B01C
